:0400000070EF3DF070
:107A9C000F0E956E1200C0F924B0999282F880985E
:107AAC000F0EC16E8168000E936E1200180E012429
:107ABC00D96E000E0220DA6EDF508A6E120001C001
:107ACC0022F002C023F0246A256A036E010E266E92
:107ADC0003501200266A256A246A236A226AA20EBF
:107AEC00F66E7A0EF76E000EF86E00EE18F010EED1
:107AFC000AF00900F5CFEEFFE550E150FAE1000184
:107B0C000AEF3FF0000E096E000E0A6E000E0B6EAF
:107B1C00000E0C6E00D001A001D001D009D0055090
:107B2C00092606500A2207500B2208500C2200D0BE
:107B3C00D8900536063607360836D890043203320C
:107B4C00023201320450011002100310D8A401D0EB
:107B5C0001D0E1D709C001F00AC002F00BC003F05C
:107B6C000CC004F01200266601D001D007D0000E24
:107B7C00026E010E016E65EC3DF000D022C001F0EA
:107B8C0023C002F024C003F025C004F06D0E056E76
:107B9C004E0E066EC60E076E410E086E88EC3DF05A
:107BAC00390E0124226E300E0220236E000E0320AB
:107BBC00246E000E0420256EFF0E2414146E7F0E0E
:107BCC002514156E00D01200116E000E136E11509C
:107BDC000EAE01D001D009D00D6C0E1ED8B00E2AFD
:107BEC00116E010E136E115000D010AE01D001D0E9
:107BFC0005D00F6C101ED8B0102A00D010500F10EA
:107C0C00D8B401D001D024D0116E010E126E1150D7
:107C1C0005D0D8900F361036122A00D010AE01D0F5
:107C2C0001D0F7D701D000D00F500D5C10500E587A
:107C3C00D8A001D001D005D00F500D5E10500E5AB7
:107C4C0000D0D89010320F32122EEED701D000D0C7
:107C5C001350D8B401D001D005D00D6C0E1ED8B085
:107C6C000E2A00D00DC00DF00EC00EF000D0120088
:107C7C00000E836E030E036E970EE82EFED7032EB6
:107C8C00FCD700D0100E836E83CF04F0056A04502D
:107C9C00110A0510D8A401D001D007D0000E026E35
:107CAC00010E016EB0D0AFD01DD00450120A0510D9
:107CBC00D8A401D001D007D0000E026E020E016EC6
:107CCC00A2D0A1D00FD00450140A0510D8A401D012
:107CDC0001D008D0000E026E030E016E94D093D02A
:107CEC0001D000D0030E036E970EE82EFED7032EA4
:107CFC00FCD700D0200E836E83CF04F0056A0450AD
:107D0C00210A0510D8A401D001D007D0000E026EB4
:107D1C00040E016E78D077D01DD00450220A0510C5
:107D2C00D8A401D001D007D0000E026E050E016E52
:107D3C006AD069D00FD00450240A0510D8A401D001
:107D4C0001D008D0000E026E060E016E5CD05BD026
:107D5C0001D000D0030E036E970EE82EFED7032E33
:107D6C00FCD700D0400E836E83CF04F0056A04501C
:107D7C00410A0510D8A401D001D007D0000E026E24
:107D8C00070E016E40D03FD01DD00450420A0510A2
:107D9C00D8A401D001D007D0000E026E080E016EDF
:107DAC0032D031D00FD00450440A0510D8A401D0E1
:107DBC0001D008D0000E026E090E016E24D023D023
:107DCC0001D000D0030E036E970EE82EFED7032EC3
:107DDC00FCD700D0800E836E83CF04F0056A04506C
:107DEC00820A0510D8A401D001D042D7000E026E31
:107DFC00000E016E08D007D03BD73AD7000E026EAA
:107E0C00000E016E00D012004EEC3DF056EC3DF031
:107E1C00000E01010101D26F000E0101D16F166E2F
:107E2C00000E01010101CA6F165000D001010101C1
:107E3C00CA05D8A401D001D02CD0166E000E0101B9
:107E4C000101CA6F1650B9EC3DF014C00DF015C00D
:107E5C000EF0000E106E0A0E0F6EEAEC3DF0D8908C
:107E6C0001010101D135166E01010101D235176EE8
:107E7C000101000E1624D96E0101010E1720DA6ED5
:107E8C000DC0DEFF0EC0DDFF01010101D14BD22B75
:107E9C0000D0000E01010101D06F000E0101CF6F67
:107EAC004AD0D89001010101CF35166E01010101B4
:107EBC00D035176E0101000E1624D96E0101010E8A
:107ECC001720DA6EDECF01F0DDCF02F05CEC3DF076
:107EDC00000E01010101CC6F000E0101CB6F0101FD
:107EEC000101CC51800A800F640ED8B4CB5DD8A0B0
:107EFC0001D001D002D01AD019D01A0E166EF80E7D
:107F0C00E82EFED7162EFCD700F001010101CF4B55
:107F1C00D02B01010101CC51800A800F640ED8B422
:107F2C00CB5DD8A001D001D0E8D700D00101010170
:107F3C00CF4BD02B00D001010101D1510101010126
:107F4C00CF5D01010101D25101010101D059D8A02D
:107F5C0001D001D0A6D700D0000E01010101CE6FD7
:107F6C00000E0101CD6F31D03EEC3EF001C0C8F1E6
:107F7C0002C0C9F1D89001010101CD35166E010185
:107F8C000101CE35176E0101000E1624D96E0101C8
:107F9C00010E1720DA6E0101DE520101C951DD1804
:107FAC000101C8C1E8FFD8B4DF18D8B401D001D0A2
:107FBC0007D0166E010E01010101CA6F165036D79B
:107FCC0001010101CD4BCE2B00D001010101D1519A
:107FDC0001010101CD5D01010101D251010101013C
:107FEC00CE59D8A001D001D0BFD720D71FD71ED7CC
:047FFC0000EF00F0A2
:020000040030CA
:0E000000210C3F1EFF8181FF0FC00FE00F405B
:00000001FF
