:0400000068EF00F0B5
:10000800FACF12F0FBCF13F0E9CF14F0E8ED01F0CE
:10001800D8CF01F0E8CF02F0E0CF03F0FACF04F038
:10002800FBCF05F0E9CF06F0EACF07F0E1CF08F003
:10003800E2CF09F0D9CF0AF0DACF0BF0F3CF0CF00A
:10004800F4CF0DF0F6CF0EF0F7CF0FF0F8CF10F099
:10005800F5CF11F0F0A201D001D013D0F0A801D053
:1000680001D00FD000010001E607D8A0E707000E75
:1000780000010001E96F010E0001E86FF096F098A9
:1000880000D011C0F5FF10C0F8FF0FC0F7FF0EC079
:10009800F6FF0DC0F4FF0CC0F3FF0BC0DAFF0AC077
:1000A800D9FF09C0E2FF08C0E1FF07C0EAFF06C0A8
:1000B800E9FF05C0FBFF04C0FAFF03C0E0FF02C070
:1000C800E8FF01C0D8FF100082EF04F0000E376E81
:1000D800320E366EB4D03F50250AD8B401D001D0C4
:1000E80009D02EC0D9FF2FC0DAFF3FC0DFFF2E4A4C
:1000F8002F2AA5D0346E000E386E345005D0AED0FD
:1001080017D016D09CD014D030C0F6FF31C0F7FFFE
:10011800304A312A0800F5CF3FF03F50000AD8B4E2
:100128009DD0640AD8B404D00D0AD8B401D087D0C1
:1001380036C0D9FF37C0DAFFDECF3AF0DDCF3BF06B
:10014800020E3626000E37223BAE01D001D007D072
:10015800030E38123A6C3B1ED8B03B2A00D0346EDE
:10016800010E3F6E34503F50050AD8A401D001D08B
:1001780002D021D020D03F50020DA60EF324F66EF7
:100188007F0EF420F76E0900F5CF34F00900F5CFA3
:1001980035F034503A5C35503B58D8B001D001D0D6
:1001A80002D009D008D03F2A3F50050AD8A401D070
:1001B80001D0E1D700D03850030BD8B401D001D01A
:1001C80009D02EC0D9FF2FC0DAFF2D0EDF6E2E4AC0
:1001D8002F2A00D03FC039F02AD03950020DA60E80
:1001E800F324F66E7F0EF420F76E0900F5CF22F0A7
:1001F8000A00F5CF23F03AC020F03BC021F02BECE9
:1002080003F020C028F021C029F0000E2B6E0A0E42
:100218002A6E90EC03F02850300F3F6E2EC0D9FFA5
:100228002FC0DAFF3FC0DFFF2E4A2F2A00D0390641
:100238003928D8A401D001D0D0D701D000D030C0FF
:10024800F6FF31C0F7FF304A312A0800F5CF3FF0FA
:100258003F6601D001D03FD701D000D02EC0D9FFD2
:100268002FC0DAFF000EDF6E00D0120040EC04F061
:1002780024EC04F00001606F000E2D6E0001605147
:100288000001616F070E2E6E000161510001626F5F
:10029800000E2F6E000162510001636F7F0E306EF9
:1002A80000016351F2EC02F00001606F000E246E51
:1002B800000160515CEC04F0340E0001606FF10E37
:1002C800E82EFED7602FFCD700D000D00001000137
:1002D800E951E811D8B401D001D0F8D7000E0001D7
:1002E8000001E56F000E0001E46F00010001E55117
:1002F800800A800F030ED8B4E45DD8A001D001D0E5
:1003080002D01BD01AD0820E0001606FDD0EE82EDD
:10031800FED7602FFCD700D000010001E44BE52B8D
:1003280000010001E551800A800F030ED8B4E45D96
:10033800D8A001D001D0E7D700D00001606F000E2F
:100348002D6E000160510001616F070E2E6E0001D5
:1003580061510001626F000E2F6E000162510001B1
:10036800636F7F0E306E00016351F2EC02F0000102
:10037800000E2F6E0001640E2E6E7F0E316EDD0EA4
:10038800306EE6C032F0E7C033F06AEC00F00001EE
:10039800606F020E326E000160510001616F030E42
:1003A800336E000161510001000E356E0001640ECC
:1003B800346E32EC02F0F086F088F090F09286D736
:1003C80085D784D768EF00F00600EACF15F0E1CFB3
:1003D80016F0E2CF17F0D9CF18F0DACF19F0F3CF33
:1003E8001AF0F4CF1BF0F6CF1CF0F7CF1DF0F8CFC2
:1003F8001EF0F5CF1FF0F0A001D001D012D0F0A66A
:1004080001D001D00ED000010001E64BE72B000E11
:1004180000010001E96F010E0001E86FF096F09805
:1004280000D01FC0F5FF1EC0F8FF1DC0F7FF1CC09D
:10043800F6FF1BC0F4FF1AC0F3FF19C0DAFF18C09B
:10044800D9FF17C0E2FF16C0E1FF15C0EAFF14C0CC
:10045800E9FF13C0FBFF12C0FAFF1100000E396E4E
:10046800000E386E25D032C02DF03844E846FC0B1B
:1004780033242E6E34C036F035C037F03850362667
:10048800395037223650F66EE96E070EEA6E37504D
:10049800EA6403D0EA6EEF5003D0F76E0800F55017
:1004A8002F6E79EC02F0384A392A020E332600D032
:1004B80034C036F035C037F0385036263950372238
:1004C8003650F66EE96E070EEA6E3750EA6403D0CE
:1004D800EA6EEF5003D0F76E0800F5500009D8A473
:1004E80001D001D0C0D700D01200000E316E000E2E
:1004F800306E3150800A800F050ED8B4305CD8A019
:1005080001D001D002D02ED02DD02DC027F02E50F2
:100518003024286EE00E2F24206E216AFF0E21223F
:10052800000E236E050E226E06EC04F030502026D5
:1005380031502122B20E2024F66E7D0E2120F76E56
:100548000800F5CF29F0B7EC02F0304A312A3150D3
:10055800800A800F050ED8B4305CD8A001D001D035
:10056800D4D700D01200400E286001D001D005D0A9
:10057800000E2B6E010E2A6E05D0000E2B6E020E99
:100588002A6E00D02AC02CF027C024F06FEC04F0AB
:1005980028C024F061EC03F02CC020F0BEEC03F07E
:1005A800000E936E2C04D8A401D001D002D0819003
:1005B80000D02C50020AD8A401D001D001D08192D9
:1005C8008196818400F0818800F029C083FF000EA5
:1005D800956E00F081988180818212002DC034F0E0
:1005E800356A24D02FC036F0376A0DD034C027F0D2
:1005F80036C028F0316E000E296E3150B7EC02F08B
:10060800364A372A00D03050316E326A3250800A6A
:10061800336E3650315C3750800A3358D8B001D029
:1006280001D0E4D700D0344A352A00D02E50316E9C
:10063800326A3250800A336E3450315C3550800A49
:100648003358D8B001D001D0CDD700D01200000E59
:10065800266E000E256E23502210D8B401D001D08A
:1006680027D0246E010E276E245005D0D89022364C
:100678002336272A00D023AE01D001D0F7D701D0E6
:1006880000D0D890253626362250205C2350215899
:10069800D8A001D001D006D02250205E2350215A84
:1006A800258000D0D89023322232272EEAD700D0D6
:1006B80025C020F026C021F01200400E246001D091
:1006C80001D014D024504009226E256E010E236EED
:1006D8002550E4EC03F0256E400E226E2550266E60
:1006E800020E236E2650E4EC03F015D0256E7F0E23
:1006F800226E2550266E010E236E2650E4EC03F080
:100708002450C00F4009226E256E020E236E25501C
:10071800E4EC03F000D012002B502A10D8B401D01A
:1007280001D023D02C6E010E2D6E2C5005D0D89000
:100738002A362B362D2A00D02BAE01D001D0F7D780
:1007480001D000D02A50285C2B502958D8A001D0BD
:1007580001D005D02A50285E2B50295A00D0D890B5
:100768002B322A322D2EEED700D028C028F029C0EF
:1007780029F012009568000E936E2004D8A401D0C9
:1007880001D002D0819000D02050020AD8A401D014
:1007980001D001D081928186819400F0818800F097
:1007A80083CF21F0819805D0818800F083CF21F094
:1007B800819821BE01D001D0F7D7818081821200B3
:1007C80023C020F0BEEC03F0000E936E2304D8A4DF
:1007D80001D001D002D0819000D02350020AD8A4C1
:1007E80001D001D001D081928196819400F0818856
:1007F80000F022C083FF000E956E00F08198818082
:100808008182120020502202F3CF24F0F4CF25F089
:1008180020502302F3CFF4FFF36AF3502426F45058
:10082800252221502202F3CFF4FFF36AF350242645
:10083800F450252224C020F025C021F000D0120059
:10084800818A266E3F0E226E2650276E010E236E79
:100858002750E4EC03F0266E3F0E226E2650276EDA
:10086800020E236E2750E4EC03F0266E000E246E71
:1008780026505CEC04F012009268000E806E000EA8
:10088800836E000E956E93680F0EC16ED08EF28E39
:10089800F28CF08CF086F090F09EF088F092F1984F
:1008A800000E00010001E96F000E0001E86F120060
:1008B8002450C009226E256E010E236E2550E4ECEB
:1008C80003F02450C009226E256E020E236E2550B7
:1008D800E4EC03F012002450B809226E256E010ED4
:1008E800236E2550E4EC03F02450B809226E256EDF
:1008F800020E236E2550E4EC03F012000001E96BB0
:10090800E86BE76BE66B000EF86E00013AEF01F05A
:1079B20000AA104A802A104A802A900AA00A508AF5
:1079C200208A104A208A104A200A500AA00A500A25
:1079D200A00A500AA00A500AA00AA442A8A2286239
:1079E20054B01AA81A4C0AA446142696224A1246E1
:1079F2008A12460A5203520AA206942CF2802A8460
:107A020012A00A500AA00A500AA00A500A204A905C
:107A12000AA00A500AA00A500AA00A500AA00A5054
:107A22000A204A900AA00A500AA00A500AA00A5044
:107A320000AA1144881122944208528410A50822F7
:107A42004822842942085104A902A900AA00550823
:107A5200A204A902A8022940AA045005500B5DEB1A
:107A620054A214A21441942288218A208A209500CB
:107A72002A40950055005500AA0054015EF5002ADF
:107A8200408A10A50822442982284114A10A5002E2
:107A920054822845104A0055208A249102548114A8
:107AA200A10AA00A500AA005A80254812A409520E2
:107AB20000AA1144881122944015204A8410A50876
:107AC200A500AA40154885104A208A1144902582B3
:107AD200284114A208510254005508A10A5005AACF
:107AE2000BFA55885522488228D2A852180A08193A
:107AF2000A080A0899F259941A018C0904094DDD01
:107B0200EA002A40154015A00A5005A80254812A0D
:107B1200802A401548055005A802548015A00A5035
:107B22008A208A11A401548228410A5082540055A5
:107B320000AA114488112294401522488214A208F6
:107B4200A2045288218A10A209A410458822481250
:107B5200441144922095005508A5104214214A94DC
:107B62006D55D35A441146104A80152244085204D6
:107B72005404A4144A055109A1154919468A162923
:107B8200F6410A510451845208214A104510A204B8
:107B9200A801AA104508A5104A0154805500AA0060
:107BA200AA104A802A4114A0154015A00A5085281F
:107BB20000AA114488112294401522488214A20876
:107BC200A204A9402A0055802A402A802A4411444E
:107BD200918AA08A5082D4616AB0A558519AB0BAEB
:107BE200B05FB56554C15AC194A0554055A47554AF
:107BF200555C5634E5AC29AC24AD28B5342C15B20D
:107C02001531942996945256B9565D54C1BA005210
:107C12000451045085284214418A5002540154826E
:107C220028419408A10A50825401AA00AA00AA106D
:107C320000AA114488112294401522488214A208F5
:107C420072EC2A5475946546D48512A24A9325A1F2
:107C5200CAA1C8A5D1A054D16AC8EDBBB54AD42ADD
:107C6200AA5294A55594A5AA54AA25A95592552A73
:107C720055F5A93D2A57951852941A582A950C542D
:107C8200852C8A24462A852B825302AB0254811406
:107C9200A104A902A80254812A400A5005A805504D
:107CA2008214A015402A802A9005284208510452C5
:107CB20000AA114488112294401522488214A20875
:107CC200A51145075505560256228B124549112525
:107CD20088428830EABCD7555BD655AA5AABAA551A
:107CE200AA95525495AAA42A554AA92AA594A52A26
:107CF20049D2A5AB76D49805508214214428851028
:107D0200229440152095400A50825402284510A220
:107D12000429402A8015A00A5005A801AA0055206E
:107D22008A10A204A902A802A8114A0154812A4178
:107D320000AA114408518254005582284214422854
:107D42008214A10AA104A902A900AA005520950043
:107D5200AA00EAE8BEAB77AD6BDEAB566F5A56AD02
:107D6200AA5CD52DEC2AAC6D4DB65655D656AB5500
:107D7200ABD5AA55B5AA55D7AEB86154012A40155C
:107D8200402A8015A00AA4114408520154812A40B5
:107D920015A005A8025482288510A2144208A51035
:107DA2004A00AA0154208A244208A5104508A208C4
:107DB200000000000000005F000000070007001440
:107DC2007F147F14242A7F2A1223130864623649FF
:107DD2005522500005030000001C224100004122F0
:107DE2001C00082A1C2A0808083E08080050300017
:107DF20000080808080800303000002010080402BB
:107E02003E5149453E00427F400042615149462170
:107E120041454B311814127F1027454545393C4ADC
:107E2200494930017109050336494949360649492C
:107E3200291E0036360000005636000000081422C3
:107E420041141414141441221408000201510906A9
:107E5200324979413E7E1111117E7F494949363EB0
:107E6200414141227F4141221C7F494949417F09C9
:107E72000901013E414151327F0808087F00417FDC
:107E820041002040413F017F081422417F40404091
:107E9200407F0204027F7F0408107F3E4141413E41
:107EA2007F090909063E4151215E7F09192946468B
:107EB2004949493101017F01013F4040403F1F20B4
:107EC20040201F7F2018207F631408146303047866
:107ED2000403615149454300007F414102040810F7
:107EE2002041417F00000402010204404040404022
:107EF200000102040020545454787F484444383826
:107F020044444420384444487F3854545418087E2A
:107F1200090102081454543C7F0804047800447D8B
:107F220040002040443D00007F10284400417F4033
:107F3200007C041804787C080404783844444438EB
:107F42007C14141408081414187C7C0804040848CF
:107F520054545420043F4440203C4040207C1C2088
:107F620040201C3C4030403C44281028440C5050D7
:107F7200503C4464544C44000836410000007F00E9
:107F820000004136080008082A1C08081C2A0808B4
:107F92000800AA000800383838000000000000007D
:107FA2000000000001000A006400E8031027426F8D
:107FB200726A61204665726E616E64657A004D6117
:107FC2007469617320537A617266657200416C65EF
:107FD20069782053616E6368697300436F6E7461E0
:107FE200646F723A2025640032382F31302F3230DC
:0E7FF2003136004772757020313346000000B2
:020000040030CA
:0E000000210C3F1EFF8181FF0FC00FE00F405B
:00000001FF
