:04000000D3EF39F011
:10738F0002A03B030E926E000E936E94680D0EC119
:10739F006EA90EC06E120000EE39F0090EEE6AE80B
:1073AF0006FDE18F0EF66E730EF76E000EF86E0986
:1073BF0000F5CF42F00900F5CF43F00900F5CF44B7
:1073CF00F00001DFEF3BF01AC0D9FF1BC0DAFFDE80
:1073DF00CF09F0DECF0AF0DDCF0BF01CC00CF01D93
:1073EF00C00DF01EC00EF061EC3CF01AC0D9FF1BAF
:1073FF00C0DAFF09C0DEFF0AC0DEFF0BC0DDFFDD14
:10740F005200D012001AC0D9FF1BC0DAFFDECF091D
:10741F00F0DECF0AF0DDCF0BF01CC00CF01DC00D5D
:10742F00F01EC00EF088EC3DF01AC0D9FF1BC0DA79
:10743F00FF09C0DEFF0AC0DEFF0BC0DDFFDD52001B
:10744F00D012000C6E000E0D6E0C500AAE01D00162
:10745F00D009D0096C0A1ED8B00A2A0C6E010E0D85
:10746F006E0C5000D009C001F00AC002F0036A0C84
:10747F006E8E0E046E0C500DC005F068EC3BF003E1
:10748F00C00BF002C00AF001C009F000D0120003D7
:10749F00AE01D001D017D001C007F002C008F00331
:1074AF00C009F0071E081E091E072A000E08220930
:1074BF0022000E0724016E000E0820026E800E09B6
:1074CF0020036E00D006AE01D001D017D004C00744
:1074DF00F005C008F006C009F0071E081E091E07B8
:1074EF002A000E08220922000E0724046E000E083F
:1074FF0020056E800E0920066E00D0000E011A00C6
:10750F000E021A800E031A000E041A000E051A80BE
:10751F000E061A0450015C0550025806500358D845
:10752F00B001D001D002D0D89003D0D88001D000C4
:10753F00D0120081948188000E1A6E050E196E000C
:10754F000E1E6E000E1D6E1E50800A800F200ED86C
:10755F00B41D5CD8A001D001D002D03ED03DD011D7
:10756F00C015F012C016F013C017F014C018F02099
:10757F000E05D0D8901832173216321532E82EF980
:10758F00D715C01BF016C01CF01BB002D0819001A4
:10759F00D081800D0E156EFB0EE82EFED7152EFC3A
:1075AF00D700D0818C819C0D0E156EFB0EE82EFE40
:1075BF00D7152EFCD700D0D89011361236133614AB
:1075CF00361D4A1E2A1E50800A800F200ED8B41D69
:1075DF005CD8A001D001D0C3D7818481981200005C
:1075EF000E0D6E000E0E6E000E0F6E000E106E3C26
:1075FF00C005F03DC006F0000E06BEFF0E076E0878
:10760F006E0D500510096E0E5006100A6E0F5007C2
:10761F00100B6E105008100C6E0A0ED89009360A17
:10762F00360B360C36E82EF9D70CC010F00BC00F06
:10763F00F00AC00EF009C00DF040C005F041C006C1
:10764F00F0000E06BEFF0E076E086E0D50051009F6
:10765F006E0E5006100A6E0F5007100B6E1050086A
:10766F00100C6E0A0ED89009360A360B360C36E817
:10767F002EF9D70CC010F00BC00FF00AC00EF00996
:10768F00C00DF03EC005F03FC006F0000E06BEFF75
:10769F000E076E086E0D5005100D6E0E5006100E73
:1076AF006E0F5007100F6E10500810106E0DC001A6
:1076BF00F00EC002F00FC003F010C004F000D012A3
:1076CF00000450D8B401D001D008D00150021003EB
:1076DF0010D8A401D001D010D000D0000E016E0040
:1076EF000E026E000E036E62D061D006D0042AD84F
:1076FF009003320232013200D0000E0114066E00E8
:10770F000E0214076EFE0E0314086E0650071008C3
:10771F0010D8A401D001D0EAD70DD00CD0042A0183
:10772F000E0126000E0222000E0322D89003320211
:10773F0032013200D0000E0114066E000E02140743
:10774F006EFF0E0314086E065007100810D8A40120
:10775F00D001D0E4D707D006D00406D89001360266
:10776F0036033600D002AE01D001D0F6D704B001F7
:10777F00D001D002D0029E00D0D89004320450081D
:10778F006E076A066A06500112075002120850036C
:10779F00120550D8B401D001D002D0038E00D00111
:1077AF00C001F002C002F003C003F000D012003598
:1077BF006E000E386E3550C9EC39F0000E3D6E007C
:1077CF000E3C6E3CC03EF03DC03FF03EC040F03F2F
:1077DF00C041F0000E376E000E366EF7EC3AF00433
:1077EF00C014F003C013F002C012F001C011F0A1D9
:1077FF00EC3AF000D082A001D001D013D027EC3E9C
:10780F00F028C040F029C041F0356E010E386E35BA
:10781F0050340E356EF10EE82EFED7352EFCD70004
:10782F00D000D082A201D001D013D027EC3EF02897
:10783F00C03EF029C03FF0356E010E386E35503422
:10784F000E356EF10EE82EFED7352EFCD700D00088
:10785F00D082A401D001D013D027EC3EF028C03C39
:10786F00F029C03DF0356E010E386E3550340E35AF
:10787F006EF10EE82EFED7352EFCD700D000D03893
:10788F0050D8B401D001D0B6D7F7EC3AF004C014F9
:10789F00F003C013F002C012F001C011F0A1EC3AD6
:1078AF00F0356E000E386E3550A5D7A4D7A3D7008C
:1078BF00EF00F00F0E0F6E09C010F00AC011F00BA1
:1078CF00C012F00F28136E04D0D89012321132105C
:1078DF0032132EFAD71050186E186601D001D00847
:1078EF00D0000E096E000E0A6E000E0B6E70D06F78
:1078FF00D00F0E0F6E0CC010F00DC011F00EC01295
:10790F00F00F28136E04D0D89012321132103213A8
:10791F002EFAD71050196E196601D001D008D00079
:10792F000E096E000E0A6E000E0B6E51D050D00075
:10793F000E146E000E156E000E166E1950890F186C
:10794F005E0BC019F00E50191A800E19160A8EFF11
:10795F000E0916FF0E0A16000E0B160D8EFF0E0CDB
:10796F0016FF0E0D16000E0E160F6E180E176E0F59
:10797F0050D8901436153616360C50095C0D500A37
:10798F00580E500B58D8A001D001D007D00C500979
:10799F005E0D500A5A0E500B5A1480D89009360AB1
:1079AF00360B36172EE5D700D014C001F015C002E4
:1079BF00F016C003F018C004F019C005F068EC3BD6
:1079CF00F003C00BF002C00AF001C009F000D012A2
:1079DF00000F0E056E01C006F002C007F003C008CD
:1079EF00F00528096E04D0D8900832073206320904
:1079FF002EFAD706500F6E0F6601D001D00AD000B5
:107A0F000E016E000E026E000E036E000E046E77F6
:107A1F00D076D0170E056E01C006F002C007F00336
:107A2F00C008F00528096E04D0D890083207320636
:107A3F0032092EFAD706500A6E028EFF0E0116FF7C
:107A4F000E0216000E031601500B6E02500C6E0341
:107A5F00500D6E0E6A8E0E0F5E0FAE01D001D01B51
:107A6F00D00F50800A8F0FD8B001D001D00BD000AB
:107A7F000E016E000E026E000E036E000E046E3FBE
:107A8F00D03ED000D0D8900E320D320C320B320FC8
:107A9F003EF9D71ED01DD0170E0F6401D001D012A2
:107AAF00D0000E016E000E026E000E036E000E046B
:107ABF006E26D025D007D0D8900B360C360D360E4B
:107ACF00360F0600D00F6601D001D0F5D701D000D8
:107ADF00D00A50D8B401D001D009D00E1E0D1E0C03
:107AEF001E0B6C000E0C220D220E2200D00BC001BB
:107AFF00F00CC002F00DC003F00EC004F000D01265
:107B0F00000F0E0F6E09C010F00AC011F00BC0125B
:107B1F00F00F28136E04D0D8901232113210321396
:107B2F002EFAD71050176E176601D001D008D0006B
:107B3F000E096E000E0A6E000E0B6E80D07FD00FF6
:107B4F000E0F6E0CC010F00DC011F00EC012F00F22
:107B5F0028136E04D0D890123211321032132EFA2D
:107B6F00D71050196E196601D001D008D0000E0938
:107B7F006E000E0A6E000E0B6E61D060D019507B36
:107B8F000F17260BC019F00E50191A800E19160A6E
:107B9F008E0D8EFF0E0C16FF0E0D16000E0E16001C
:107BAF000E146E000E156E000E166E0F6E070E1869
:107BBF006E0F5000D009A001D001D007D00C501487
:107BCF00260D5015220E50162200D0D8900B320AD7
:107BDF00320932D8900C360D360E36182EEBD700F0
:107BEF00D00F6E090E186E0F5000D009A001D001F2
:107BFF00D007D00C5014260D5015220E501622000F
:107C0F00D0D8900B320A320932D89016321532146E
:107C1F0032182EEBD700D014C001F015C002F016A9
:107C2F00C003F017C004F019C005F068EC3BF00377
:107C3F00C00BF002C00AF001C009F000D01200031F
:107C4F000EC26E00D0C2B201D001D0FCD700D0C49A
:107C5F00502B6E2A6AC3502A24096E000E2B200A5D
:107C6F006E29EC3AF00BC03BF00AC03AF009C0396C
:107C7F00F042C00CF043C00DF044C00EF039C00903
:107C8F00F03AC00AF03BC00BF088EC3DF00BC01C83
:107C9F00F00AC01BF009C01AF0B00E1D6E320E1E96
:107CAF006EBF0E1F6EE3EC3EF01CC034F01BC033F2
:107CBF00F01AC032F0000E1B6E320E1A6E0A0E1C36
:107CCF006E670E1D6E400E1E6EEBEC39F0000E1B34
:107CDF006E320E1A6E000E1C6E340E1D6E430E1E8B
:107CEF006E0AEC3AF03450800A800F05E1000E3333
:107CFF005C02E1000E325CD8B001D001D007D00099
:107D0F000E326E000E336E000E346E19D0000E015F
:107D1F006E340E026E430E036E32C004F033C00594
:107D2F00F034C006F04FEC3AF0D8B001D001D007D4
:107D3F00D0000E326E340E336E430E346E00D00010
:107D4F000E2C6E340E2D6E430E2E6E32C009F03394
:107D5F00C00AF034C00BF02CC00CF02DC00DF02E6B
:107D6F00C00EF061EC3CF00BC031F00AC030F009EE
:107D7F00C02FF02FC009F030C00AF031C00BF0C097
:107D8F000E0C6E7F0E0D6E440E0E6E88EC3DF00BDA
:107D9F00C031F00AC030F009C02FF02FC001F03011
:107DAF00C002F031C003F0F0EC3CF001C028F0024B
:107DBF00C029F000D012000F0E206E1AC021F01B48
:107DCF00C022F01CC023F02028246E04D0D89023AA
:107DDF003222322132242EFAD72150276E0F0E2055
:107DEF006E1DC021F01EC022F01FC023F0202824DA
:107DFF006E04D0D890233222322132242EFAD7218A
:107E0F0050266E2750D8B401D001D00FD02650275E
:107E1F006001D001D011D0275000082624206E1900
:107E2F000E205CD8A001D001D007D01DC01AF01EC3
:107E3F00C01BF01FC01CF0DBD02650D8B401D001FE
:107E4F00D00FD02750266001D001D011D02650007E
:107E5F00082724206E190E205CD8A001D001D0076E
:107E6F00D01AC01AF01BC01BF01CC01CF0C0D020D1
:107E7F006E060E256E20501CAE01D001D002D0250B
:107E8F008E00D01FAE01D001D001D0258C1B8EFFEC
:107E9F000E1A16FF0E1B16000E1C161E8EFF0E1D41
:107EAF0016FF0E1E16000E1F162650276001D0015A
:107EBF00D023D000D0D8901D361E361F362606266A
:107ECF00502718D8B401D001D010D025062550075F
:107EDF000BD8A401D001D0EED708D007D006D0D848
:107EEF00901C321B321A32272A00D02650276201EB
:107EFF00D001D0F5D729D028D02750266001D00146
:107F0F00D023D000D0D8901A361B361C3627062621
:107F1F00502718D8B401D001D010D025062550070E
:107F2F000BD8A401D001D0EED708D007D006D0D8F7
:107F3F00901F321E321D32262A00D0265027620192
:107F4F00D001D0F5D701D000D025AE01D001D00C93
:107F5F00D0FF0E1A1AFF0E1B1AFF0E1C1A010E1A53
:107F6F0026000E1B22000E1C2225AC01D001D00DC5
:107F7F00D0FF0E1D1AFF0E1E1AFF0E1F1A010E1D27
:107F8F0026000E1E22000E1F2200D0206E000E258E
:107F9F006E20501A501D261B501E221C501F221FD0
:107FAF00AE01D001D011D0FF0E1D1AFF0E1E1AFF09
:107FBF000E1F1A010E1D26000E1E22000E1F22205C
:107FCF006E010E256E205000D01DC001F01EC002A4
:107FDF00F01FC003F027C004F025C005F068EC3B8C
:107FEF00F003C01CF002C01BF001C01AF000D01249
:027FFF0000FF81
:020000040030CA
:0E000000210C3F1EFF8181FF0FC00FE00F405B
:00000001FF
