:040000000CEF00F011
:10000800FACF01F0FBCF02F0E9CF03F0CCED09F015
:1000180087EF0BF0F0EC0CF03BEC0DF0A4EC0CF0DF
:1000280000019D6F000E1C6E00019D5100019E6F26
:10003800070E1D6E00019E5100019F6F000E1E6E7F
:1000480000019F510001A06F7F0E1F6E0001A0519B
:1000580088EC0AF000019D6F000E136E00019D519F
:1000680005EC0DF0000E166E010E156EB2EC0BF0DD
:100078002BEC0DF000019D6F010E266E00019D51C5
:1000880000019E6F010E276E00019E517F0E296EA2
:10009800F20E286E11EC0AF000019D6F050E266E17
:1000A80000019D5100019E6F010E276E00019E51B7
:1000B8007F0E296EE40E286E11EC0AF0000E000186
:1000C8000001D26F000E00010001D36F000E000185
:1000D8000001D46F00D0000E00010001B66F000EC1
:1000E8000001B56FBDD2070EC26E00D0C2B201D0FA
:1000F80001D0FCD700D0C45000019E6F9D6BC35047
:1001080000019D25176E0001000E9E21186EDAEC85
:100118000BF019C0D4F018C0D3F017C0D2F0C9C082
:100128001AF0CAC01BF0CBC01CF0D2C017F0D3C065
:1001380018F0D4C019F089EC07F019C0C2F018C043
:10014800C1F017C0C0F0C0C039F0C1C03AF0C2C099
:100158003BF0D5EC06F03BC0C5F03AC0C4F039C05E
:10016800C3F00001000E00010001706F0001AB0E2A
:1001780000016F6F7F0E00010001726FFB0E00011E
:10018800716F000E1A6E200E1B6E410E1C6EC3C0DE
:1001980017F0C4C018F0C5C019F089EC07F019C0F1
:1001A80062F018C061F017C060F0E3EC05F060C0C1
:1001B80073F061C074F0CDEC04F0C9C01AF0CAC085
:1001C8001BF0CBC01CF0D2C017F0D3C018F0D4C0BD
:1001D80019F089EC07F019C0C2F018C0C1F017C0B7
:1001E800C0F0C0C039F0C1C03AF0C2C03BF0D5EC95
:1001F80006F03BC0C5F03AC0C4F039C0C3F0C3C074
:1002080017F0C4C018F0C5C019F0000E1A6E200E01
:100218001B6E410E1C6E89EC07F019C0BFF018C0A8
:10022800BEF017C0BDF000010001BF510001000180
:10023800BC190DE100010001BE5100010001BB190C
:1002480006E100010001BD5100010001BA19D8B44E
:1002580001D001D008D0000E00010001B66F010ED8
:100268000001B56F00D0BDC0BAF0BEC0BBF0BFC0C2
:10027800BCF000019D6F070E266E00019D51000124
:100288009E6F010E276E00019E510001000E296E1F
:100298000001AB0E286E11EC0AF0000E00010001FF
:1002A800CD6F040E0001CC6FF3D1030EC26E00D0E7
:1002B800C2B201D001D0FCD700D0C45000019E6F5B
:1002C8009D6BC35000019D25176E0001000E9E21F5
:1002D800186EDAEC0BF019C0D4F018C0D3F017C0C0
:1002E800D2F0C9C01AF0CAC01BF0CBC01CF0D2C0F3
:1002F80017F0D3C018F0D4C019F089EC07F019C072
:100308002DF018C02CF017C02BF0B00E2E6E320E48
:100318002F6EBF0E306EB0EC03F02DC0C8F02CC0AD
:10032800C7F02BC0C6F00001000E296E0001C60EF2
:10033800286E0A0E2A6E670E2B6E400E2C6E67EC26
:100348000CF00001000E296E0001C60E286E000E8A
:100358002A6E340E2B6E430E2C6E48EC0CF0000106
:100368000001C851800A800F07E1000E0001C75D37
:1003780003E1000E0001C65DD8B001D001D00DD058
:10038800000E00010001C66F000E00010001C76FDA
:10039800000E00010001C86F20D0000E0F6E340E51
:1003A800106E430E116EC6C012F0C7C013F0C8C05D
:1003B80014F02EEC09F0D8B001D001D00ED0000E08
:1003C80000010001C66F340E00010001C76F430E23
:1003D80000010001C86F01D000D00001000E00012B
:1003E8000001706F0001A10E00016F6F7F0E000108
:1003F8000001726FFB0E0001716FC6C060F0C7C0CC
:1004080061F0C8C062F0E3EC05F060C073F061C051
:1004180074F0CDEC04F000010001C85100010001A6
:10042800B9190DE100010001C75100010001B81917
:1004380006E100010001C65100010001B719D8B456
:1004480001D001D008D0000E00010001B66F010EE6
:100458000001B56F00D0C6C0B7F0C7C0B8F0C8C0BB
:10046800B9F000019D6F030E266E00019D51000139
:100478009E6F010E276E00019E510001000E296E2D
:100488000001A10E286E11EC0AF0000E0001000117
:10049800CD6F040E0001CC6F070EC26E00D0C2B241
:1004A80001D001D0FCD700D0C45000019E6F9D6BD5
:1004B800C35000019D25176E0001000E9E21186E85
:1004C800DAEC0BF019C0D4F018C0D3F017C0D2F092
:1004D800C9C01AF0CAC01BF0CBC01CF0D2C017F0BC
:1004E800D3C018F0D4C019F089EC07F019C0C2F0D5
:1004F80018C0C1F017C0C0F0C0C039F0C1C03AF090
:10050800C2C03BF0D5EC06F03BC0C5F03AC0C4F021
:1005180039C0C3F00001000E00010001706F000136
:10052800AB0E00016F6F7F0E00010001726FFB0EB2
:100538000001716F000E1A6E200E1B6E410E1C6EAC
:10054800C3C017F0C4C018F0C5C019F089EC07F093
:1005580019C062F018C061F017C060F0E3EC05F054
:1005680060C073F061C074F0CDEC04F0C9C01AF03B
:10057800CAC01BF0CBC01CF0D2C017F0D3C018F013
:10058800D4C019F089EC07F019C0C2F018C0C1F046
:1005980017C0C0F0C0C039F0C1C03AF0C2C03BF0CB
:1005A800D5EC06F03BC0C5F03AC0C4F039C0C3F082
:1005B800C3C017F0C4C018F0C5C019F0000E1A6EF9
:1005C800200E1B6E410E1C6E89EC07F019C0BFF09F
:1005D80018C0BEF017C0BDF000010001BF510001F6
:1005E8000001BC190DE100010001BE51000100012C
:1005F800BB1906E100010001BD5100010001BA1953
:10060800D8B401D001D008D0000E00010001B66FA7
:10061800010E0001B56F00D0BDC0BAF0BEC0BBF07E
:10062800BFC0BCF000019D6F070E266E00019D51F2
:1006380000019E6F010E276E00019E510001000E01
:10064800296E0001AB0E286E11EC0AF0000E0001B5
:100658000001CD6F040E0001CC6F1AD019D018D04C
:100668000001CCC09DF00001CDC09EF000019E515C
:10067800000AD8B401D00CD000019D51020AD8B4A8
:1006880032D5010AD8B411D6070AD8B401D000D09F
:1006980000010001D651D511D8B401D001D041D004
:1006A80000010001CE51030ACF11D8A401D001D016
:1006B80008D0000E00010001CF6F020E0001CE6FBE
:1006C80012D000010001CE51020ACF11D8A401D0E6
:1006D80001D009D0000E00010001CF6F030E000108
:1006E800CE6F01D000D0CEC0CCF0CFC0CDF000018D
:1006F800D0C09DF00001D1C09EF000019D1F9E1F3B
:100708009D4B9E2BFF0E00019D25D66EFF0E00010E
:100718009E21D76E000E00010001D66F000E000169
:10072800D56F00010001B505B611D8A401D001D0DC
:10073800D2D4BAC083F0BBC084F0BCC085F0B7C0C7
:1007480086F0B8C087F0B9C088F0F7EC0AF0C3D4D7
:10075800C2D4C1D40CEF00F00F0E316E2BC032F0B2
:100768002CC033F02DC034F03128356E04D0D89029
:10077800343233323232352EFAD73250386E0F0EC9
:10078800316E2EC032F02FC033F030C034F0312833
:10079800356E04D0D890343233323232352EFAD70F
:1007A8003250376E3850D8B401D001D00FD03750FE
:1007B800386001D001D011D0385000083724316E8C
:1007C800190E315CD8A001D001D007D02EC02BF073
:1007D8002FC02CF030C02DF0DBD03750D8B401D06A
:1007E80001D00FD03850376001D001D011D0375028
:1007F80000083824316E190E315CD8A001D001D020
:1008080007D02BC02BF02CC02CF02DC02DF0C0D061
:10081800316E060E366E31502DAE01D001D002D0A9
:10082800368E00D030AE01D001D001D0368C2C8E5F
:10083800FF0E2B16FF0E2C16000E2D162F8EFF0EF8
:100848002E16FF0E2F16000E30163750386001D0C6
:1008580001D023D000D0D8902E362F363036370628
:1008680037503818D8B401D001D010D036063650D9
:10087800070BD8A401D001D0EED708D007D006D0F6
:10088800D8902D322C322B32382A00D0375038628B
:1008980001D001D0F5D729D028D03850376001D001
:1008A80001D023D000D0D8902B362C362D363806E0
:1008B80037503818D8B401D001D010D03606365089
:1008C800070BD8A401D001D0EED708D007D006D0A6
:1008D800D89030322F322E32372A00D03750386233
:1008E80001D001D0F5D701D000D036AE01D001D06B
:1008F8000CD0FF0E2B1AFF0E2C1AFF0E2D1A010E0C
:100908002B26000E2C22000E2D2236AC01D001D051
:100918000DD0FF0E2E1AFF0E2F1AFF0E301A010EE1
:100928002E26000E2F22000E302200D0316E000E2F
:10093800366E31502B502E262C502F222D5030221F
:1009480030AE01D001D011D0FF0E2E1AFF0E2F1A93
:10095800FF0E301A010E2E26000E2F22000E302216
:10096800316E010E366E315000D02EC00FF02FC000
:1009780010F030C011F038C012F036C013F0B7ECE8
:1009880008F011C02DF010C02CF00FC02BF000D0D3
:1009980012000001000E000100017A6F0001730EC1
:1009A8000001796FEFD0000100018251250AD8B407
:1009B80001D001D00CD06FC0D9FF70C0DAFF0001A0
:1009C80082C0DFFF000100016F4B702BDBD00001FC
:1009D800776F000E000100017B6F0001775105D091
:1009E800E6D01DD01CD0CED01AD0000171C0F6FFC1
:1009F800000172C0F7FF00010001714B722B080063
:100A08000001F5CF82F000018251000AD8B4CFD09E
:100A1800640AD8B404D00D0AD8B401D0B3D079C0D0
:100A2800D9FF7AC0DAFF0001DECF7DF00001DDCF0B
:100A38007EF0020E000100017927000E00017A23E2
:100A4800000100017EAF01D001D00CD0030E0001DF
:100A580000017B13000100017D6D00017E1FD8B0ED
:100A68007E2B00D00001776F010E00010001826F1C
:100A780000017751000100018251050AD8A401D074
:100A880001D002D02DD02CD0000100018251020DDE
:100A9800CC0EF324F66E7F0EF420F76E0900F5CF26
:100AA80077F00900F5CF78F00001775100010001D7
:100AB8007D5D00017851000100017E59D8B001D058
:100AC80001D002D00DD00CD000010001822B000112
:100AD80000018251050AD8A401D001D0D5D700D091
:100AE800000100017B51030BD8B401D001D00BD019
:100AF8006FC0D9FF70C0DAFF2D0EDF6E0001000154
:100B08006F4B702B00D082C07CF031D00001000107
:100B18007C51020DCC0EF324F66E7F0EF420F76E96
:100B28000900F5CF11F00A00F5CF12F07DC00FF0E3
:100B38007EC010F0C1EC0AF00FC017F010C018F01A
:100B4800000E1A6E0A0E196E59EC0BF01750300F82
:100B580000010001826F6FC0D9FF70C0DAFF000189
:100B680082C0DFFF000100016F4B702B00D0000135
:100B780000017C0700017C29D8A401D001D0C6D788
:100B880001D000D0000171C0F6FF000172C0F7FF6C
:100B980000010001714B722B08000001F5CF82F0B3
:100BA8000001826701D001D0FED601D000D06FC00D
:100BB800D9FF70C0DAFF000EDF6E00D012000F0EF2
:100BC8000001646F000160C065F0000161C066F05B
:100BD800000162C067F0000164290001686F05D058
:100BE8000001D8906733663365330001682FF8D762
:100BF80000016551000100016E6F00016E6701D0B0
:100C080001D00FD0000E00010001606F000E00013E
:100C1800616F000E0001626F000E0001636FC0D0AB
:100C2800BFD0170E0001646F000160C065F00001BD
:100C380061C066F0000162C067F00001642900012C
:100C4800686F05D00001D8906733663365330001BB
:100C5800682FF8D70001655100010001696F000194
:100C68000001618FFF0E000100016017FF0E0001F7
:100C780000016117000E0001000162170001000168
:100C88006051000100016A6F00010001615100011B
:100C98006B6F0001625100016C6F00016D6B8E0E6D
:100CA800000100016E5F000100016EAF01D001D0AC
:100CB80029D0000100016E51800A8F0FD8B001D0F1
:100CC80001D010D0000E00010001606F000E00017D
:100CD800616F000E0001626F000E0001636F60D04B
:100CE8005FD000D00001D89000016D3300016C3353
:100CF80000016B3300016A33000100016E3FF2D737
:100D08002ED02DD0170E000100016E6501D001D044
:100D18001ED0000E00010001606F000E0001616F1F
:100D2800000E0001626F000E0001636F39D038D0E9
:100D38000ED00001D89000016A3700016B3700011E
:100D48006C3700016D37000100016E0700D000010B
:100D580000016E6701D001D0ECD701D000D00001AE
:100D680000016951D8B401D001D011D000010001AF
:100D78006D1F00016C1F00016B1F00016A6D000EE2
:100D880000016B2300016C2300016D2300D06AC0B1
:100D980060F06BC061F06CC062F06DC063F000D0B1
:100DA800120039C01AF03AC01BF03BC01CF039C021
:100DB80017F03AC018F03BC019F089EC07F019C0D9
:100DC8003EF018C03DF017C03CF039C01AF03AC0E8
:100DD8001BF03BC01CF03CC017F03DC018F03EC0F3
:100DE80019F089EC07F019C041F018C040F017C09D
:100DF8003FF039C01AF03AC01BF03BC01CF039C0B4
:100E080017F03AC018F03BC019F089EC07F019C088
:100E180044F018C043F017C042F0640E1A6E210E59
:100E28001B6E400E1C6E3FC017F040C018F041C04A
:100E380019F089EC07F019C02AF018C029F017C07A
:100E480028F0DBEC0CF02AC030F029C02FF028C0C5
:100E58002EF0F50E1A6E8A0E1B6E410E1C6E42C0E5
:100E680017F043C018F044C019F089EC07F019C016
:100E78002DF018C02CF017C02BF0B0EC03F02DC0EB
:100E880047F02CC046F02BC045F0360E1A6E270EE0
:100E98001B6E420E1C6E39C017F03AC018F03BC0EA
:100EA80019F089EC07F019C02AF018C029F017C00A
:100EB80028F0DBEC0CF02AC030F029C02FF028C055
:100EC8002EF045C02BF046C02CF047C02DF0B0ECFA
:100ED80003F02DC04AF02CC049F02BC048F048C0A0
:100EE8002BF049C02CF04AC02DF0E90E2E6E210ED1
:100EF8002F6E420E306EB0EC03F02DC03BF02CC0CC
:100F08003AF02BC039F000D012000F0E1D6E17C03A
:100F18001EF018C01FF019C020F01D28216E04D043
:100F2800D89020321F321E32212EFAD71E50226E40
:100F3800226601D001D008D0000E176E000E186E80
:100F4800000E196E80D07FD00F0E1D6E1AC01EF0D5
:100F58001BC01FF01CC020F01D28216E04D0D890A3
:100F680020321F321E32212EFAD71E50276E2766D6
:100F780001D001D008D0000E176E000E186E000EBA
:100F8800196E61D060D027507B0F222619C027F038
:100F98001C50271A800E2716188E1B8EFF0E1A1645
:100FA800FF0E1B16000E1C16000E236E000E246E7C
:100FB800000E256E1D6E070E266E1D5000D017A060
:100FC80001D001D007D01A5023261B5024221C50D0
:100FD800252200D0D890193218321732D8901A36F4
:100FE8001B361C36262EEBD700D01D6E090E266E3A
:100FF8001D5000D017A001D001D007D01A502326C9
:101008001B5024221C50252200D0D89019321832A7
:101018001732D890253224322332262EEBD700D02F
:1010280023C00FF024C010F025C011F022C012F028
:1010380027C013F0B7EC08F011C019F010C018F071
:101048000FC017F000D012000F0E1D6E17C01EF053
:1010580018C01FF019C020F01D28216E04D0D890A8
:1010680020321F321E32212EFAD71E50266E2666D7
:1010780001D001D008D0000E176E000E186E000EB9
:10108800196E70D06FD00F0E1D6E1AC01EF01BC0E7
:101098001FF01CC020F01D28216E04D0D8902032EB
:1010A8001F321E32212EFAD71E50276E276601D016
:1010B80001D008D0000E176E000E186E000E196EC3
:1010C80051D050D0000E236E000E246E000E256EF7
:1010D8002750890F265E19C027F01C50271A800E4A
:1010E8002716188EFF0E1716FF0E1816000E191663
:1010F8001B8EFF0E1A16FF0E1B16000E1C161D6EF9
:10110800180E226E1D50D8902336243625361A50D4
:10111800175C1B5018581C501958D8A001D001D082
:1011280007D01A50175E1B50185A1C50195A2380A2
:10113800D890173618361936222EE5D700D023C096
:101148000FF024C010F025C011F026C012F027C0FF
:1011580013F0B7EC08F011C019F010C018F00FC068
:1011680017F000D012001250D8B401D001D008D026
:101178000F5010101110D8A401D001D010D000D0F9
:10118800000E0F6E000E106E000E116E62D061D050
:1011980006D0122AD890113210320F3200D0000E29
:1011A8000F14146E000E1014156EFE0E1114166E28
:1011B800145015101610D8A401D001D0EAD70DD0BC
:1011C8000CD0122A010E0F26000E1022000E11223A
:1011D800D890113210320F3200D0000E0F14146E56
:1011E800000E1014156EFF0E1114166E1450151003
:1011F8001610D8A401D001D0E4D707D006D0120623
:10120800D8900F361036113600D010AE01D001D06C
:10121800F6D712B001D001D002D0109E00D0D890DD
:1012280012321250166E156A146A14500F121550A5
:101238001012165011121350D8B401D001D002D098
:10124800118E00D00FC00FF010C010F011C011F0B7
:1012580000D0120011AE01D001D017D00FC015F088
:1012680010C016F011C017F0151E161E171E152AED
:10127800000E16221722000E15240F6E000E1620DF
:10128800106E800E1720116E00D014AE01D001D060
:1012980017D012C015F013C016F014C017F0151EA1
:1012A800161E171E152A000E16221722000E1524C8
:1012B800126E000E1620136E800E1720146E00D0CA
:1012C800000E0F1A000E101A800E111A000E121AB4
:1012D800000E131A800E141A12500F5C1350105877
:1012E80014501158D8B001D001D002D0D89003D0F2
:1012F800D88001D000D01200E00E1E24226E236A8E
:10130800FF0E232222C00FF023C010F0000E126E31
:10131800050E116E86EC0CF00FC022F010C023F001
:10132800000E256E000E246E2550800A800F050ED3
:10133800D8B4245CD8A001D001D002D028D027D0BE
:1013480022C01FF023C020F024501F262550202241
:10135800D80E1F24F66E7D0E2020F76E0800F5CFFC
:1013680021F01CC016F01D502424176E21C018F05F
:101378004DEC0AF0244A252A2550800A800F050ED4
:10138800D8B4245CD8A001D001D0DAD700D012009C
:101398000600EACF04F0E1CF05F0E2CF06F0D9CF9E
:1013A80007F0DACF08F0F3CF09F0F4CF0AF0F6CF60
:1013B8000BF0F7CF0CF0F8CF0DF0F5CF0EF0F2AA46
:1013C80001D001D00DD0F2A401D001D009D0F294FF
:1013D800000E00010001D66F010E0001D56F00D08C
:1013E8000EC0F5FF0DC0F8FF0CC0F7FF0BC0F6FFED
:1013F8000AC0F4FF09C0F3FF08C0DAFF07C0D9FF2D
:1014080006C0E2FF05C0E1FF04C0EAFF03C0E9FF30
:1014180002C0FBFF01C0FAFF110026D026C01CF055
:101428002750060DF3CF1DF02850F66EE96E070E13
:10143800EA6E2950EA6403D0EA6EEF5003D0F76EE3
:101448000800F5501E6E80EC09F0272A140E276458
:1014580001D001D006D02A6E000E276E2A50262A07
:1014680000D0284A292A00D02850F66EE96E070EC7
:10147800EA6E2950EA6403D0EA6EEF5003D0F76EA3
:101488000800F5500009D8A401D001D0C7D700D072
:101498001200400E176001D001D005D0000E1A6E60
:1014A800010E196E05D0000E1A6E020E196E00D0CC
:1014B80019C01BF016C013F018EC0DF017C013F08C
:1014C8002AEC0BF01BC00FF000EC0CF0000E936E32
:1014D8001B04D8A401D001D002D0819000D01B50A9
:1014E800020AD8A401D001D001D0819281968184CA
:1014F80000F0818800F018C083FF000E956E00F0A0
:1015080081988180818212001CC023F0246A24D033
:101518001EC025F0266A0DD023C016F025C017F08E
:10152800206E000E186E20504DEC0AF0254A262A2F
:1015380000D01F50206E216A2150800A226E25504B
:10154800205C2650800A2258D8B001D001D0E4D7B8
:1015580000D0234A242A00D01D50206E216A215031
:10156800800A226E2350205C2450800A2258D8B06A
:1015780001D001D0CDD700D01200000E156E000E9C
:10158800146E12501110D8B401D001D027D0136EA8
:10159800010E166E135005D0D89011361236162A41
:1015A80000D012AE01D001D0F7D701D000D0D8902A
:1015B8001436153611500F5C12501058D8A001D0AF
:1015C80001D006D011500F5E1250105A148000D06E
:1015D800D89012321132162EEAD700D014C00FF06C
:1015E80015C010F012000001000E00010001706F1C
:1015F8000001890E00016F6F7F0E00010001726FFC
:10160800D60E0001716F86C060F087C061F088C097
:1016180062F0E3EC05F060C073F061C074F083C061
:1016280060F084C061F085C062F0E3EC05F060C052
:1016380075F061C076F0CDEC04F00001000E106E7C
:101648000001890E0F6EC0EC0CF01200400E136002
:1016580001D001D014D013504009116E146E010E40
:10166800126E145026EC0CF0146E400E116E1450CD
:10167800156E020E126E155026EC0CF015D0146E75
:101688007F0E116E1450156E010E126E155026EC59
:101698000CF01350C00F4009116E146E020E126E3A
:1016A800145026EC0CF000D012001A501910D8B4BF
:1016B80001D001D023D01B6E010E1C6E1B5005D02B
:1016C800D89019361A361C2A00D01AAE01D001D08B
:1016D800F7D701D000D01950175C1A501858D8A065
:1016E80001D001D005D01950175E1A50185A00D0F1
:1016F800D8901A3219321C2EEED700D017C017F026
:1017080018C018F012000001D66BD56BD46BD36BE0
:10171800D26B8E0EF66E1A0EF76E000EF86E00EE95
:10172800C9F010EE09F00900F5CFEEFFE550E150E1
:10173800FAE1970EF66E1A0EF76E000EF86E00EECE
:101748004BF010EE07F00900F5CFEEFFE550E15041
:10175800FAE1000EF86E00010EEF00F0000E196EAF
:10176800000E186E0BD01A0E176EF80EE82EFED764
:10177800172EFCD700F0184A192A00D015C00FF010
:1017880016C010F0000E126E640E116E86EC0CF08E
:101798001950800A176E0F50185C1050800A17589D
:1017A800D8A001D001D0DFD700D012001A6E000EE9
:1017B8001B6E1A5018AE01D001D009D0176C181E34
:1017C800D8B0182A1A6E010E1B6E1A5000D017C016
:1017D8000FF018C010F0116A1A6E8E0E126E1A50A1
:1017E8001BC013F0B7EC08F011C019F010C018F0C6
:1017F8000FC017F000D012009568000E936E0F040A
:10180800D8A401D001D002D0819000D00F50020A94
:10181800D8A401D001D001D081928186819400F0B2
:10182800818800F083CF10F0819805D0818800F07E
:1018380083CF10F0819810BE01D001D0F7D78180F6
:101848008182120012C00FF000EC0CF0000E936EB3
:101858001204D8A401D001D002D0819000D0125037
:10186800020AD8A401D001D001D081928196819436
:1018780000F0818800F011C083FF000E956E00F023
:10188800819881808182120028C0D9FF29C0DAFF9F
:10189800DECF17F0DECF18F0DDCF19F02AC01AF02E
:1018A8002BC01BF02CC01CF089EC07F028C0D9FF16
:1018B80029C0DAFF17C0DEFF18C0DEFF19C0DDFF40
:1018C800DD5200D0120028C0D9FF29C0DAFFDECFD0
:1018D80017F0DECF18F0DDCF19F02AC01AF02BC0B0
:1018E8001BF02CC01CF028EC08F028C0D9FF29C038
:1018F800DAFF17C0DEFF18C0DEFF19C0DDFFDD52BA
:1019080000D012000F501102F3CF13F0F4CF14F0EF
:101918000F501202F3CFF4FFF36AF3501326F4507A
:10192800142210501102F3CFF4FFF36AF350132678
:10193800F450142213C00FF014C010F000D012009D
:10194800818A156E3F0E116E1550166E010E126EBD
:10195800165026EC0CF0156E3F0E116E1550166ED3
:10196800020E126E165026EC0CF0156E000E136E59
:10197800155005EC0DF012000FD000D09EA801D034
:1019880001D0FCD700D00FC0D9FF10C0DAFFDF505C
:10199800AD6E0F4A102A00D00FC0D9FF10C0DAFF71
:1019A800DF50D8A401D001D0E9D700D012007F0EB3
:1019B8002A1429102810D8B401D001D006D0000E5E
:1019C800281A000E291A800E2A1A28C028F029C0C1
:1019D80029F02AC02AF01200030E926E050EC26E7C
:1019E8000D0EC16EA90EC06E948C948EAC8AAC9804
:1019F800AC84AC9CAB8EAB88B896080EAF6E9D9845
:101A080012001350C009116E146E010E126E14509C
:101A180026EC0CF01350C009116E146E020E126EF3
:101A2800145026EC0CF012001350B809116E146E05
:101A3800010E126E145026EC0CF01350B809116EFA
:101A4800146E020E126E145026EC0CF0120020EEEA
:101A58004BF010EE11F0070EDECFE6FFE82EFCD7B4
:101A6800000E106E110E0F6EC0EC0CF01200D08E2E
:101A7800F28EF294F28AF184840ED56EEC0ED76E53
:101A8800770ED66E120002A03B04000200881349AC
:061A98004E49540D0A0046
:107DD800000000000000005F00000007000700141A
:107DE8007F147F14242A7F2A1223130864623649D9
:107DF8005522500005030000001C224100004122CA
:107E08001C00082A1C2A0808083E080800503000F0
:107E18000008080808080030300000201008040294
:107E28003E5149453E00427F40004261514946214A
:107E380041454B311814127F1027454545393C4AB6
:107E48004949300171090503364949493606494906
:107E5800291E00363600000056360000000814229D
:107E68004114141414144122140800020151090683
:107E7800324979413E7E1111117E7F494949363E8A
:107E8800414141227F4141221C7F494949417F09A3
:107E98000901013E414151327F0808087F00417FB6
:107EA80041002040413F017F081422417F4040406B
:107EB800407F0204027F7F0408107F3E4141413E1B
:107EC8007F090909063E4151215E7F091929464665
:107ED8004949493101017F01013F4040403F1F208E
:107EE80040201F7F2018207F631408146303047840
:107EF8000403615149454300007F414102040810D1
:107F08002041417F000004020102044040404040FB
:107F1800000102040020545454787F4844443838FF
:107F280044444420384444487F3854545418087E04
:107F3800090102081454543C7F0804047800447D65
:107F480040002040443D00007F10284400417F400D
:107F5800007C041804787C080404783844444438C5
:107F68007C14141408081414187C7C0804040848A9
:107F780054545420043F4440203C4040207C1C2062
:107F880040201C3C4030403C44281028440C5050B1
:107F9800503C4464544C44000836410000007F00C3
:107FA80000004136080008082A1C08081C2A08088E
:107FB8000800AA0008003838380000000000000057
:107FC8000000000001000A006400E8031027444193
:107FD80054412C25642C25640D0A000056616C6FF1
:107FE800722073686172703A2000477261646F731F
:087FF8003A200025640000009E
:020000040030CA
:0E000000210C3F1EFF8181FF0FC00FE00F405B
:00000001FF
