:040000000CEF00F011
:10000800FACF01F0FBCF02F0E9CF03F022ED08F0C0
:1000180001EF0AF0D6EC0BF037EC0CF09FEC0BF08C
:100028003C6E000E1C6E3C503D6E070E1D6E3D5022
:100038003E6E000E1E6E3E503F6E7F0E1F6E3F508E
:1000480035EC09F03C6E000E136E3C5001EC0CF0E0
:10005800000E166E020E156E86EC0AF027EC0CF0F8
:100068003C6E010E266E3C503D6E010E276E3D50D3
:100078007F0E296EF30E286EBEEC08F03C6E050E5E
:10008800266E3C503D6E010E276E3D507F0E296E48
:10009800C60E286EBEEC08F0000E000100019C6F31
:1000A800000E000100019D6F000E000100019E6F0F
:1000B80000D0000E000100018F6F000E00018E6F4E
:1000C80000010001A251A111D8B401D001D00FD272
:1000D800000E00010001A26F000E0001A16F0001D7
:1000E800000E106E0001A30E0F6E7F0E126EE10E51
:1000F800116E5BEC0AF010500F10D8A401D001D09B
:1001080008D0000E000100018F6F010E00018E6FF4
:10011800EED10001000E106E0001A30E0F6E7F0ECF
:10012800126EEA0E116E5BEC0AF010500F10D8A494
:1001380001D001D0DCD127EC0CF0D9D1D8D1D7D15E
:10014800D6D1070EC26E00D0C2B201D001D0FCD702
:1001580000D0C4503D6E3C6AC3503C24176E000E5C
:100168003D20186ED5EC0AF019C09EF018C09DF01D
:1001780017C09CF0D5C01AF0D6C01BF0D7C01CF031
:100188009CC017F09DC018F09EC019F093EC05F0C4
:1001980019C092F018C091F017C090F090C039F0D3
:1001A80091C03AF092C03BF0DFEC04F03BC095F010
:1001B8003AC094F039C093F093C017F094C018F087
:1001C80095C019F0000E1A6E200E1B6E410E1C6EA3
:1001D80093EC05F019C098F018C097F017C096F086
:1001E8000001000E1F6E00017E0E1E6E7F0E216E36
:1001F800FC0E206E96C00FF097C010F098C011F05A
:1002080032EC06F00FC022F010C023F00FEC04F01F
:1002180096C08BF097C08CF098C08DF03C6E070E9E
:10022800266E3C503D6E010E276E3D500001000EBB
:10023800296E00017E0E286EBEEC08F0000E00014B
:100248000001D96F040E0001D86F67D1030EC26E8A
:1002580000D0C2B201D001D0FCD700D0C4503D6E4E
:100268003C6AC3503C24176E000E3D20186ED5EC36
:100278000AF019C09EF018C09DF017C09CF0D5C0B8
:100288001AF0D6C01BF0D7C01CF09CC017F09DC058
:1002980018F09EC019F093EC05F019C02DF018C0A5
:1002A8002CF017C02BF0680E2E6EB10E2F6EBF0EFD
:1002B800306EF2EC02F02DC09BF02CC09AF02BC0EF
:1002C80099F00001000E296E0001990E286EEE0EBD
:1002D8002A6E1C0E2B6E400E2C6E62EC0BF0000189
:1002E800000E296E0001990E286E000E2A6E340E3B
:1002F8002B6E430E2C6E43EC0BF0000100019B515A
:10030800800A800F07E1000E00019A5D03E1000EEC
:100318000001995DD8B001D001D00DD0000E0001C8
:100328000001996F000E000100019A6F000E000194
:1003380000019B6F20D0000E0F6E340E106E430E1E
:10034800116E99C012F09AC013F09BC014F0D0EC53
:1003580007F0D8B001D001D00ED0000E0001000186
:10036800996F340E000100019A6F430E00010001DD
:100378009B6F01D000D00001000E1F6E0001740EAB
:100388001E6E7F0E216EFC0E206E99C00FF09AC073
:1003980010F09BC011F032EC06F00FC022F010C034
:1003A80023F00FEC04F099C088F09AC089F09BC044
:1003B8008AF03C6E030E266E3C503D6E010E276E91
:1003C8003D500001000E296E0001740E286EBEEC2F
:1003D80008F0000E00010001D96F040E0001D86F6B
:1003E800070EC26E00D0C2B201D001D0FCD700D037
:1003F800C4503D6E3C6AC3503C24176E000E3D202D
:10040800186ED5EC0AF019C09EF018C09DF017C000
:100418009CF0D5C01AF0D6C01BF0D7C01CF09CC009
:1004280017F09DC018F09EC019F093EC05F019C0A4
:1004380092F018C091F017C090F090C039F091C0B8
:100448003AF092C03BF0DFEC04F03BC095F03AC0C4
:1004580094F039C093F093C017F094C018F095C089
:1004680019F0000E1A6E200E1B6E410E1C6E93ECD6
:1004780005F019C098F018C097F017C096F0000161
:10048800000E1F6E00017E0E1E6E7F0E216EFC0E8A
:10049800206E96C00FF097C010F098C011F032ECA3
:1004A80006F00FC022F010C023F00FEC04F096C045
:1004B8008BF097C08CF098C08DF03C6E070E266EBE
:1004C8003C503D6E010E276E3D500001000E296E16
:1004D80000017E0E286EBEEC08F0000E000100013F
:1004E800D96F040E0001D86F18D017D016D00001AC
:1004F800D8C03CF00001D9C03DF03D50000AD8B446
:1005080001D00BD03C50020AD8B41BD6010AD8B48B
:100518009DD6070AD8B401D000D000010001A0512F
:100528009F11D8B401D001D03ED000010001DA51AA
:10053800030ADB11D8A401D001D008D0000E0001B5
:100548000001DB6F020E0001DA6F12D0000100011A
:10055800DA51020ADB11D8A401D001D009D0000E6B
:1005680000010001DB6F030E0001DA6F01D000D03B
:10057800DAC0D8F0DBC0D9F00001DCC03CF00001E3
:10058800DDC03DF03C1E3D1E3C4A3D2AFF0E3C248A
:10059800D66EFF0E3D20D76E000E00010001A06F41
:1005A800000E00019F6F000100018E058F11D8A475
:1005B80001D001D07ED58BC032F08CC033F08DC015
:1005C80034F088C035F089C036F08AC037F02EEC98
:1005D8000AF06FD56ED56DD50CEF00F00F0E316EA9
:1005E8002BC032F02CC033F02DC034F03128356EDA
:1005F80004D0D890343233323232352EFAD73250D2
:10060800386E0F0E316E2EC032F02FC033F030C06E
:1006180034F03128356E04D0D89034323332323247
:10062800352EFAD73250376E3850D8B401D001D0B1
:100638000FD03750386001D001D011D038500008A1
:100648003724316E190E315CD8A001D001D007D003
:100658002EC02BF02FC02CF030C02DF0DBD037503F
:10066800D8B401D001D00FD03850376001D001D0B4
:1006780011D0375000083824316E190E315CD8A0DB
:1006880001D001D007D02BC02BF02CC02CF02DC0EE
:100698002DF0C0D0316E060E366E31502DAE01D021
:1006A80001D002D0368E00D030AE01D001D001D0BA
:1006B800368C2C8EFF0E2B16FF0E2C16000E2D16C8
:1006C8002F8EFF0E2E16FF0E2F16000E30163750E7
:1006D800386001D001D023D000D0D8902E362F36E4
:1006E8003036370637503818D8B401D001D010D07A
:1006F80036063650070BD8A401D001D0EED708D063
:1007080007D006D0D8902D322C322B32382A00D080
:100718003750386201D001D0F5D729D028D03850C9
:10072800376001D001D023D000D0D8902B362C369A
:100738002D36380637503818D8B401D001D010D02B
:1007480036063650070BD8A401D001D0EED708D012
:1007580007D006D0D89030322F322E32372A00D028
:100768003750386201D001D0F5D701D000D036AE6D
:1007780001D001D00CD0FF0E2B1AFF0E2C1AFF0E41
:100788002D1A010E2B26000E2C22000E2D2236AC1F
:1007980001D001D00DD0FF0E2E1AFF0E2F1AFF0E1A
:1007A800301A010E2E26000E2F22000E302200D005
:1007B800316E000E366E31502B502E262C502F22C3
:1007C8002D50302230AE01D001D011D0FF0E2E1A9C
:1007D800FF0E2F1AFF0E301A010E2E26000E2F22A2
:1007E800000E3022316E010E366E315000D02EC010
:1007F8000FF02FC010F030C011F038C012F036C022
:1008080013F059EC07F011C02DF010C02CF00FC0F8
:100818002BF000D01200000E296E220E286EB4D0E4
:100828003150250AD8B401D001D009D01EC0D9FF53
:100838001FC0DAFF31C0DFFF1E4A1F2AA5D0266E6F
:10084800000E2A6E265005D0AED017D016D09CD0F8
:1008580014D020C0F6FF21C0F7FF204A212A080043
:10086800F5CF31F03150000AD8B49DD0640AD8B41D
:1008780004D00D0AD8B401D087D028C0D9FF29C028
:10088800DAFFDECF2CF0DDCF2DF0020E2826000E89
:1008980029222DAE01D001D007D0030E2A122C6CCC
:1008A8002D1ED8B02D2A00D0266E010E316E26508E
:1008B8003150050AD8A401D001D002D021D020D0CF
:1008C8003150020DBC0EF324F66E7F0EF420F76E45
:1008D8000900F5CF26F00900F5CF27F026502C5C4B
:1008E80027502D58D8B001D001D002D009D008D057
:1008F800312A3150050AD8A401D001D0E1D700D05F
:100908002A50030BD8B401D001D009D01EC0D9FF9A
:100918001FC0DAFF2D0EDF6E1E4A1F2A00D031C01D
:100928002BF02AD02B50020DBC0EF324F66E7F0E4E
:10093800F420F76E0900F5CF11F00A00F5CF12F098
:100948002CC00FF02DC010F06EEC09F00FC017F09E
:1009580010C018F0000E1A6E0A0E196ED3EC09F0CA
:100968001750300F316E1EC0D9FF1FC0DAFF31C0DB
:10097800DFFF1E4A1F2A00D02B062B28D8A401D03F
:1009880001D0D0D701D000D020C0F6FF21C0F7FF9A
:10099800204A212A0800F5CF31F0316601D001D074
:1009A8003FD701D000D01EC0D9FF1FC0DAFF000E0C
:1009B800DF6E00D0120039C01AF03AC01BF03BC0FD
:1009C8001CF039C017F03AC018F03BC019F093EC8E
:1009D80005F019C062F018C061F017C060F039C0A6
:1009E8001AF03AC01BF03BC01CF060C017F061C0A1
:1009F80018F062C019F093EC05F019C065F018C042
:100A080064F017C063F039C01AF03AC01BF03BC05D
:100A18001CF039C017F03AC018F03BC019F093EC3D
:100A280005F019C068F018C067F017C066F0640ECA
:100A38001A6E210E1B6E400E1C6E63C017F064C048
:100A480018F065C019F093EC05F019C02AF018C029
:100A580029F017C028F0ECEC0BF02AC030F029C0C0
:100A68002FF028C02EF0F50E1A6E8A0E1B6E410E5E
:100A78001C6E66C017F067C018F068C019F093ECD8
:100A880005F019C02DF018C02CF017C02BF0F2ECAF
:100A980002F02DC06BF02CC06AF02BC069F0360E46
:100AA8001A6E270E1B6E420E1C6E39C017F03AC024
:100AB80018F03BC019F093EC05F019C02AF018C0E3
:100AC80029F017C028F0ECEC0BF02AC030F029C050
:100AD8002FF028C02EF069C02BF06AC02CF06BC034
:100AE8002DF0F2EC02F02DC06EF02CC06DF02BC092
:100AF8006CF06CC02BF06DC02CF06EC02DF0E90EC0
:100B08002E6E210E2F6E420E306EF2EC02F02DC0CA
:100B18003BF02CC03AF02BC039F000D012000F0E79
:100B28001D6E17C01EF018C01FF019C020F01D2838
:100B3800216E04D0D89020321F321E32212EFAD7CF
:100B48001E50226E226601D001D008D0000E176E0A
:100B5800000E186E000E196E80D07FD00F0E1D6E1D
:100B68001AC01EF01BC01FF01CC020F01D28216EEB
:100B780004D0D89020321F321E32212EFAD71E50B0
:100B8800276E276601D001D008D0000E176E000E20
:100B9800186E000E196E61D060D027507B0F222688
:100BA80019C027F01C50271A800E2716188E1B8E86
:100BB800FF0E1A16FF0E1B16000E1C16000E236ED3
:100BC800000E246E000E256E1D6E070E266E1D503B
:100BD80000D017A001D001D007D01A5023261B50EF
:100BE80024221C50252200D0D890193218321732EE
:100BF800D8901A361B361C36262EEBD700D01D6E21
:100C0800090E266E1D5000D017A001D001D007D0C4
:100C18001A5023261B5024221C50252200D0D8907D
:100C2800193218321732D890253224322332262E20
:100C3800EBD700D023C00FF024C010F025C011F06E
:100C480022C012F027C013F059EC07F011C019F0B8
:100C580010C018F00FC017F000D012000F0E136E5E
:100C68000FC014F010C015F011C016F01328176E3D
:100C780004D0D890163215321432172EFAD71450E1
:100C88001D6E1D6601D001D00AD0000E0F6E000E39
:100C9800106E000E116E000E126E77D076D0170E01
:100CA800136E0FC014F010C015F011C016F0132801
:100CB800176E04D0D890163215321432172EFAD780
:100CC8001450186E108EFF0E0F16FF0E1016000E21
:100CD80011160F50196E10501A6E11501B6E1C6AA7
:100CE8008E0E1D5E1DAE01D001D01BD01D50800A96
:100CF8008F0FD8B001D001D00BD0000E0F6E000EB0
:100D0800106E000E116E000E126E3FD03ED000D055
:100D1800D8901C321B321A3219321D3EF9D71ED018
:100D28001DD0170E1D6401D001D012D0000E0F6E19
:100D3800000E106E000E116E000E126E26D025D019
:100D480007D0D89019361A361B361C361D0600D027
:100D58001D6601D001D0F5D701D000D01850D8B405
:100D680001D001D009D01C1E1B1E1A1E196C000EC2
:100D78001A221B221C2200D019C00FF01AC010F032
:100D88001BC011F01CC012F000D012000F0E1D6E17
:100D980017C01EF018C01FF019C020F01D28216EC2
:100DA80004D0D89020321F321E32212EFAD71E507E
:100DB800266E266601D001D008D0000E176E000EF0
:100DC800186E000E196E70D06FD00F0E1D6E1AC0FF
:100DD8001EF01BC01FF01CC020F01D28216E04D07F
:100DE800D89020321F321E32212EFAD71E50276E7D
:100DF800276601D001D008D0000E176E000E186EBD
:100E0800000E196E51D050D0000E236E000E246EC5
:100E1800000E256E2750890F265E19C027F01C503A
:100E2800271A800E2716188EFF0E1716FF0E181693
:100E3800000E19161B8EFF0E1A16FF0E1B16000E3B
:100E48001C161D6E180E226E1D50D890233624369F
:100E580025361A50175C1B5018581C501958D8A022
:100E680001D001D007D01A50175E1B50185A1C50D9
:100E7800195A2380D890173618361936222EE5D7F6
:100E880000D023C00FF024C010F025C011F026C0F8
:100E980012F027C013F059EC07F011C019F010C078
:100EA80018F00FC017F000D012001250D8B401D0BB
:100EB80001D008D00F5010101110D8A401D001D0C3
:100EC80010D000D0000E0F6E000E106E000E116EC6
:100ED80062D061D006D0122AD890113210320F3267
:100EE80000D0000E0F14146E000E1014156EFE0EB6
:100EF8001114166E145015101610D8A401D001D074
:100F0800EAD70DD00CD0122A010E0F26000E10229F
:100F1800000E1122D890113210320F3200D0000E7C
:100F28000F14146E000E1014156EFF0E1114166EA9
:100F3800145015101610D8A401D001D0E4D707D04A
:100F480006D01206D8900F361036113600D010AEE3
:100F580001D001D0F6D712B001D001D002D0109E36
:100F680000D0D89012321250166E156A146A1450B6
:100F78000F1215501012165011121350D8B401D078
:100F880001D002D0118E00D00FC00FF010C010F0A9
:100F980011C011F000D0120011AE01D001D017D04D
:100FA8000FC015F010C016F011C017F0151E161E50
:100FB800171E152A000E16221722000E15240F6E72
:100FC800000E1620106E800E1720116E00D014AE81
:100FD80001D001D017D012C015F013C016F014C0FC
:100FE80017F0151E161E171E152A000E1622172298
:100FF800000E1524126E000E1620136E800E172098
:10100800146E00D0000E0F1A000E101A800E111A5E
:10101800000E121A000E131A800E141A12500F5CCA
:101028001350105814501158D8B001D001D002D024
:10103800D89003D0D88001D000D012000600EACFA3
:1010480004F0E1CF05F0E2CF06F0D9CF07F0DACF10
:1010580008F0F3CF09F0F4CF0AF0F6CF0BF0F7CF92
:101068000CF0F8CF0DF0F5CF0EF0F2AA01D001D0B8
:101078000DD0F2A401D001D009D0F294000E0001E5
:101088000001A06F010E00019F6F00D09DAA01D042
:1010980001D007D09EAA01D001D003D0AEEC0AF04F
:1010A80000D00EC0F5FF0DC0F8FF0CC0F7FF0BC055
:1010B800F6FF0AC0F4FF09C0F3FF08C0DAFF07C053
:1010C800D9FF06C0E2FF05C0E1FF04C0EAFF03C084
:1010D800E9FF02C0FBFF01C0FAFF1100E00E1E2469
:1010E800226E236AFF0E232222C00FF023C010F0C5
:1010F800000E126E050E116E81EC0BF00FC022F07F
:1011080010C023F0000E256E000E246E2550800AB4
:10111800800F050ED8B4245CD8A001D001D002D02D
:1011280028D027D022C01FF023C020F024501F262B
:1011380025502022C80E1F24F66E7D0E2020F76E43
:101148000800F5CF21F01CC016F01D502424176E9E
:1011580021C018F0FAEC08F0244A252A2550800A04
:10116800800F050ED8B4245CD8A001D001D0DAD7FE
:1011780000D0120026D026C01CF02750060DF3CF51
:101188001DF02850F66EE96E070EEA6E2950EA64E3
:1011980003D0EA6EEF5003D0F76E0800F5501E6ECC
:1011A80072EC08F0272A140E276401D001D006D06B
:1011B8002A6E000E276E2A50262A00D0284A292A8D
:1011C80000D02850F66EE96E070EEA6E2950EA64E0
:1011D80003D0EA6EEF5003D0F76E0800F55000090F
:1011E800D8A401D001D0C7D700D01200400E176094
:1011F80001D001D005D0000E1A6E010E196E05D06F
:10120800000E1A6E020E196E00D019C01BF016C01F
:1012180013F014EC0CF017C013F0A4EC09F01BC089
:101228000FF0FBEC0AF0000E936E1B04D8A401D05B
:1012380001D002D0819000D01B50020AD8A401D05E
:1012480001D001D081928196818400F0818800F0DC
:1012580018C083FF000E956E00F08198818081820E
:1012680012001CC023F0246A24D01EC025F0266A70
:101278000DD023C016F025C017F0206E000E186E92
:101288002050FAEC08F0254A262A00D01F50206E7C
:10129800216A2150800A226E2550205C2650800A3F
:1012A8002258D8B001D001D0E4D700D0234A242A4C
:1012B80000D01D50206E216A2150800A226E2350D2
:1012C800205C2450800A2258D8B001D001D0CDD754
:1012D80000D01200000E166E000E156E125011107E
:1012E800D8B401D001D027D0136E010E146E13505C
:1012F80005D0D89011361236142A00D012AE01D07B
:1013080001D0F7D701D000D0D89015361636115035
:101318000F5C12501058D8A001D001D006D011503F
:101328000F5E1250105A158000D0D8901232113228
:10133800142EEAD700D015C00FF016C010F0120016
:10134800400E136001D001D014D013504009116E23
:10135800146E010E126E145021EC0BF0146E400E38
:10136800116E1450156E020E126E155021EC0BF012
:1013780015D0146E7F0E116E1450156E010E126E7C
:10138800155021EC0BF01350C00F4009116E146E6C
:10139800020E126E145021EC0BF000D012001A50FD
:1013A8001910D8B401D001D023D01B6E010E1C6EC9
:1013B8001B5005D0D89019361A361C2A00D01AAE00
:1013C80001D001D0F7D701D000D01950175C1A50BE
:1013D8001858D8A001D001D005D01950175E1A505E
:1013E800185A00D0D8901A3219321C2EEED700D0D5
:1013F80017C017F018C018F0120000EE9CF0390E54
:10140800EE6AE806FDE1486A476A860EF66E180E2F
:10141800F76E000EF86E00EED5F010EE09F0090038
:10142800F5CFEEFFE550E150FAE18F0EF66E180E9B
:10143800F76E000EF86E00EE40F010EE07F00900AF
:10144800F5CFEEFFE550E150FAE1000EF86E00012D
:101458000EEF00F00001000E1F6E0001600E1E6E00
:101468007F0E216ED40E206E35C00FF036C010F0FE
:1014780037C011F032EC06F00FC022F010C023F094
:1014880032C00FF033C010F034C011F032EC06F067
:101498000FC024F010C025F00FEC04F00001000E7E
:1014A800106E0001600E0F6EBBEC0BF0120005D041
:1014B8000F4A102A114A122A00D00FC0D9FF10C0B3
:1014C800DAFFDF50136E11C0F6FF12C0F7FF0800F5
:1014D800F55000081324146E146601D001D00BD007
:1014E8000FC0D9FF10C0DAFFDF50D8A401D001D057
:1014F800DFD701D000D014500F6E106A0FBE10064F
:1015080000D01200000E196E000E186E0BD01A0EC5
:10151800176EF80EE82EFED7172EFCD700F0184AE3
:10152800192A00D015C00FF016C010F0000E126E68
:10153800640E116E81EC0BF01950800A176E0F5073
:10154800185C1050800A1758D8A001D001D0DFD7F6
:1015580000D012000001A30E4724D96E0001000E2E
:101568004820DA6EAECFDFFF0001A30E4724D96E04
:101578000001000E4820DA6E0A0EDF6201D001D0A9
:101588000CD0000E00010001A26F010E0001A16F36
:10159800000E486E000E476E03D0474A482A00D016
:1015A80012001A6E000E1B6E1A5018AE01D001D030
:1015B80009D0176C181ED8B0182A1A6E010E1B6EA7
:1015C8001A5000D017C00FF018C010F0116A1A6E28
:1015D8008E0E126E1A501BC013F059EC07F011C092
:1015E80019F010C018F00FC017F000D0120095685D
:1015F800000E936E0F04D8A401D001D002D08190C0
:1016080000D00F50020AD8A401D001D001D0819295
:101618008186819400F0818800F083CF10F0819852
:1016280005D0818800F083CF10F0819810BE01D0DA
:1016380001D0F7D781808182120012C00FF0FBEC35
:101648000AF0000E936E1204D8A401D001D002D083
:10165800819000D01250020AD8A401D001D001D044
:1016680081928196819400F0818800F011C083FFF7
:10167800000E956E00F0819881808182120028C04A
:10168800D9FF29C0DAFFDECF17F0DECF18F0DDCFA3
:1016980019F02AC01AF02BC01BF02CC01CF093ECD8
:1016A80005F028C0D9FF29C0DAFF17C0DEFF18C02F
:1016B800DEFF19C0DDFFDD5200D0120028C0D9FFBF
:1016C80029C0DAFFDECF17F0DECF18F0DDCF19F032
:1016D8002AC01AF02BC01BF02CC01CF0CAEC06F074
:1016E80028C0D9FF29C0DAFF17C0DEFF18C0DEFF07
:1016F80019C0DDFFDD5200D012000F501102F3CFE8
:1017080013F0F4CF14F00F501202F3CFF4FFF36A82
:10171800F3501326F450142210501102F3CFF4FFA3
:10172800F36AF3501326F450142213C00FF014C0B8
:1017380010F000D01200818A156E3F0E116E155000
:10174800166E010E126E165021EC0BF0156E3F0E40
:10175800116E1550166E020E126E165021EC0BF01B
:10176800156E000E136E155001EC0CF012000FD020
:1017780000D09EA801D001D0FCD700D00FC0D9FF5F
:1017880010C0DAFFDF50AD6E0F4A102A00D00FC02C
:10179800D9FF10C0DAFFDF50D8A401D001D0E9D7B3
:1017A80000D01200030E926E050EC26E0D0EC16EB1
:1017B800A90EC06E949C948EAC8AAC98AC84AC9CF8
:1017C800AB8EAB88B896080EAF6E9D989D8A1200B6
:1017D8007F0E2A1429102810D8B401D001D006D0C1
:1017E800000E281A000E291A800E2A1A28C028F07E
:1017F80029C029F02AC02AF012001350C009116E1E
:10180800146E010E126E145021EC0BF01350C00927
:10181800116E146E020E126E145021EC0BF01200B1
:101828001350B809116E146E010E126E145021EC8B
:101838000BF01350B809116E146E020E126E14508C
:1018480021EC0BF0120020EE40F010EE11F0070E24
:10185800DECFE6FFE82EFCD7000E106E110E0F6EDD
:10186800BBEC0BF01200D08EF28EF294F28AF18467
:10187800840ED56EEC0ED76E770ED66E120002A0CF
:0E1888003B040002008813494E49540A000038
:107DC800000000000000005F00000007000700142A
:107DD8007F147F14242A7F2A1223130864623649E9
:107DE8005522500005030000001C224100004122DA
:107DF8001C00082A1C2A0808083E08080050300001
:107E080000080808080800303000002010080402A4
:107E18003E5149453E00427F40004261514946215A
:107E280041454B311814127F1027454545393C4AC6
:107E38004949300171090503364949493606494916
:107E4800291E0036360000005636000000081422AD
:107E58004114141414144122140800020151090693
:107E6800324979413E7E1111117E7F494949363E9A
:107E7800414141227F4141221C7F494949417F09B3
:107E88000901013E414151327F0808087F00417FC6
:107E980041002040413F017F081422417F4040407B
:107EA800407F0204027F7F0408107F3E4141413E2B
:107EB8007F090909063E4151215E7F091929464675
:107EC8004949493101017F01013F4040403F1F209E
:107ED80040201F7F2018207F631408146303047850
:107EE8000403615149454300007F414102040810E1
:107EF8002041417F0000040201020440404040400C
:107F0800000102040020545454787F48444438380F
:107F180044444420384444487F3854545418087E14
:107F2800090102081454543C7F0804047800447D75
:107F380040002040443D00007F10284400417F401D
:107F4800007C041804787C080404783844444438D5
:107F58007C14141408081414187C7C0804040848B9
:107F680054545420043F4440203C4040207C1C2072
:107F780040201C3C4030403C44281028440C5050C1
:107F8800503C4464544C44000836410000007F00D3
:107F980000004136080008082A1C08081C2A08089E
:107FA8000800AA0008003838380000000000000067
:107FB8000000000001000A006400E8031027566171
:107FC8006C6F722073686172703A200044415441AA
:107FD8002C25642C25640A0000474554444154412B
:107FE8000A00524553544152540A00477261646F63
:087FF800733A2000256400002B
:020000040030CA
:0E000000210C3F1EFF8181FF0FC00FE00F405B
:00000001FF
