:040000000CEF00F011
:10000800FACF2AF0FBCF2BF0E9CF2CF03EED14F01D
:04001800EAEF16F005
:10080000C20808083C086A08340345005300410048
:1008100049004900200054006500630068006E0034
:100820006F006C006F00670079002E000000000070
:100830000000000000000000000000002E03440043
:100840006900730070006F00730069007400690034
:10085000750020004800490044002E000000000000
:100860000000000000000000000009022900010152
:1008700000C0320904000002030000000921110138
:100880000001221D00070581034000010705010347
:100890004000010600FF0901A101190129401500CE
:1008A00026FF00750895408100190129409100C07C
:1008B0001201000200000008D8043F0000010102FC
:1008C0000001040309040000040104012205D8A466
:1008D00001D001D01BD00401040120511F0B0009DD
:1008E000D8A401D001D012D0000100017F8F0401F3
:1008F00004012151030AD8A401D001D003D0010E74
:10090000456E04D0000E456E01D000D004010401F4
:10091000226701D001D099D10401040120511F0B9D
:10092000020AD8A401D001D090D1040104012451BD
:100930000F0B0009D8B401D001D087D10401040104
:1009400024510F0B1C6E020E1C5CD8B001D001D0DC
:100950007CD1000100017851200AD8A401D001D037
:1009600074D1000100017F8F0401040124BF01D074
:1009700001D025D00401040124510F0B1C6E1C5022
:10098000020D00016C0EF324D96E0001000EF4205C
:10099000DA6EDECF22F0DDCF23F004010401245112
:1009A0000F0B1C6E1C50010D0001760EF324D96E46
:1009B0000001000EF420DA6EDF50216E25D0040114
:1009C000040124510F0B1C6E1C50020D0001680E17
:1009D000F324D96E0001000EF420DA6EDECF22F08F
:1009E000DDCF23F00401040124510F0B1C6E1C50B9
:1009F000010D0001740EF324D96E0001000EF420E5
:100A0000DA6EDF50216E00D021B001D001D002D0CB
:100A1000229402D0228400D00401040124BF01D01A
:100A200001D014D00401040124510F0B1C6E1C5082
:100A3000020D00016C0EF324D96E0001000EF420AB
:100A4000DA6E22C0DEFF23C0DDFF14D004010401F2
:100A500024510F0B1C6E1C50020D0001680EF32474
:100A6000D96E0001000EF420DA6E22C0DEFF23C032
:100A7000DDFF00D0040104012151030AD8A401D0F4
:100A800001D044D022C0D9FF23C0DAFFDF501C6E52
:100A90001CAE01D001D02DD00401040124BF01D02F
:100AA00001D013D00401040124510F0B1C6E1C5003
:100AB000010D0001760EF324D96E0001000EF42022
:100AC000DA6E020E0001DF1214D004010401245179
:100AD0000F0B1C6E1C50010D0001740EF324D96E17
:100AE0000001000EF420DA6E020E0001DF1201D0C8
:100AF00000D022C0D9FF23C0DAFF000EDB8422C061
:100B0000D9FF23C0DAFF000EDB8E9FD0040E221A1D
:100B100022C0D9FF23C0DAFFDF501C6E1CAE01D00B
:100B200001D01BD022C0D9FF23C0DAFF7F0EDF1611
:100B300022C0D9FF23C0DAFF000EDB8C000E156E39
:100B4000050E146E22C016F023C017F0000E196EA9
:100B5000020E186EF0EC13F007D022C0D9FF23C0AC
:100B6000DAFF000EDB8C00D0040E221A21B201D075
:100B700001D00AD022C0D9FF23C0DAFFDF501C6E9B
:100B80001CAE01D001D041D00401040124BF01D02A
:100B900001D013D00401040124510F0B1C6E1C5012
:100BA000010D0001760EF324D96E0001000EF42031
:100BB000DA6EFD0E0001DF1613D00401040124518A
:100BC0000F0B1C6E1C50010D0001740EF324D96E26
:100BD0000001000EF420DA6EFD0E0001DF1600D0D9
:100BE00022C0D9FF23C0DAFF3B0EDF16000E156EC0
:100BF000050E146E22C016F023C017F0000E196EF9
:100C0000020E186EF0EC13F007D022C0D9FF23C0FB
:100C1000DAFF3B0EDF1600D00401040124510F0B54
:100C20001C6E1C50010D700EF3241D6E0F0EF4206F
:100C30001E6E1DC01FF01EC020F01FC0D9FF20C0B7
:100C4000DAFFFE0EDF1601D000D012000001000115
:100C500073517211D8B401D001D00DD072C0D9FF38
:100C600073C0DAFFDF500001896F000189BF01D036
:100C700001D05BD100D0050105010051800AD8A444
:100C800001D001D069D0000E00010001916F000E6B
:100C90000001906F000E00010001936F010E000132
:100CA000926F000100019351800A800F090ED8B4A1
:100CB000925DD8A001D001D002D04BD04AD005011E
:100CC000000E000100019225D96E0501050E0001FC
:100CD00000019321DA6EDF500001896F0001895114
:100CE000000100018C6F00018D6B92C089F0FF0E36
:100CF0000001892700018CC08AF000018DC08BF0B3
:100D00000001892B04D0D89000018A378B3700016D
:100D1000892FF9D700010001905100018A110001CB
:100D20000001906F00010001915100018B11000141
:100D3000916F00010001924B932B00010001935130
:100D4000800A800F090ED8B4925DD8A001D001D0DE
:100D5000B6D790C081FFBFD0050105010051850ABB
:100D6000D8A401D001D003D0000E816EB4D005010B
:100D700005010051810AD8A401D001D049D0000159
:100D8000000171517011D8B401D001D00DD070C0E4
:100D9000D9FF71C0DAFFDF500001896F000189BF00
:100DA00001D001D035D000D00001896F810E05013E
:100DB0000501406F0001895183CF41F50001896F22
:100DC000010E00010001826F0001895100018A6F4C
:100DD000010E00010001836F00018A510501050E1B
:100DE00000010001856F0501400E0001846F0001C4
:100DF0008B6F400E00010001866F00018B51F2ECF9
:100E00000DF0000182C070F0000183C071F063D06A
:100E1000050105010051370AD8A401D001D05BD0EB
:100E20000001000171517011D8B401D001D00DD072
:100E300070C0D9FF71C0DAFFDF500001896F000177
:100E400089BF01D001D047D000D0030EC26EC08E42
:100E500000D0C2B201D001D0FCD700D00001896F10
:100E6000370E05010501406F00018951C3CF8EF097
:100E7000C4CF8FF08EC041F58FC042F50001896F5D
:100E8000010E00010001826F0001895100018A6F8B
:100E9000010E00010001836F00018A510501050E5A
:100EA00000010001856F0501400E0001846F000103
:100EB0008B6F400E00010001866F00018B51F2EC38
:100EC0000DF0000182C070F0000183C071F003D00A
:100ED00002D001D000D00001896F010E0001000195
:100EE000826F0001895100018A6F000E000100012C
:100EF000836F00018A510501050E00010001856F15
:100F00000501000E0001846F00018B6F400E00018F
:100F10000001866F00018B51F2EC0DF0000182C0E0
:100F200072F0000183C073F000D0120000010001D4
:100F30007805D8A401D001D00ED06DBA01D001D06F
:100F40000AD0000E686E69806988020E00010001F7
:100F5000786F01D000D068A401D001D008D069A476
:100F600001D001D004D06894DEEC15F000D06DA261
:100F700001D001D002D0A19AE5D068A001D001D063
:100F80000DD069A001D001D009D0A9EC09F0A08A48
:100F9000040E00010001786F689000D068A801D0AD
:100FA00001D007D069A801D001D003D032EC16F0EF
:100FB00000D068AC01D001D025D069AC01D001D0FF
:100FC0000FD0000E156E730E146E000E176E000E0D
:100FD000166E000E196E010E186EF0EC13F000D0B4
:100FE000689CFDEC15F04A50D8B401D001D002D075
:100FF0004A0600D04A6601D001D004D042EC11F07C
:1010000001D000D068AA01D001D007D069AA01D0D0
:1010100001D003D02FEC15F000D068A201D001D090
:1010200015D069A201D001D011D07F0E156EFF0E30
:10103000146E000E176E000E166E000E196E010E65
:10104000186EF0EC13F0000E6A6E00D0040E000172
:101050000001786101D001D002D0A19A73D069A6B5
:1010600001D001D06ED0276E000E296E2750030EDE
:10107000296401D001D002D064D063D068A601D029
:1010800001D05FD06CCF50F05030E832E8320F0B17
:101090004C6E689650B401D001D01AD0010E276E64
:1010A0004C50010D0001760EF324D96E0001000EA4
:1010B000F420DA6E0001DF50010B286E2750281A49
:1010C0000001DF502818FE0B28180001DF6E1AD02F
:1010D000010E276E4C50010D0001740EF324D96EE1
:1010E0000001000EF420DA6E0001DF50010B286EC3
:1010F0002750281A0001DF502818FE0B281800017D
:10110000DF6E00D04C6601D001D003D04EEC13F05E
:1011100011D0000E156E720E146E000E176E500E6A
:10112000166E000E196E000E186EF0EC13F002D061
:1011300001D007D0292A030E296401D001D09ED7FF
:1011400000D0A19A1200A09A000E6A6E000E686E7E
:10115000000E706E0F0E00010001836F710E000112
:10116000826F000E00010001856F000E0001846F88
:10117000000E00010001876F010E0001866FBEECBA
:1011800015F0160E6F6E9F0E6B6E7B0E696E000172
:101190008A6F000E000100018B6F00018A51070E5B
:1011A000000100018B6501D001D002D021D020D0F8
:1011B000000100018B51040D0401000EF324D96ECF
:1011C0000401040EF420DA6E000EDE6E000EDE6EF8
:1011D000000EDE6E000EDD6EDD52DD5200010001FC
:1011E0008B2B070E000100018B6501D001D0E0D7E9
:1011F0006D8C000E6E6E6D986D9C00D06896000E22
:10120000000100017F6F000E00010001636F000EFE
:1012100000010001656F000E0001646F68B601D027
:1012200001D0ECD700D0010E00010001796F010E52
:10123000000100017A6F000E476E000E486E000E2E
:10124000466E00018A6F000E000100018B6F0001E5
:101250008A51010E000100018B6501D001D002D03E
:1012600048D047D0000100018B51020D0001680EEB
:10127000F324D96E0001000EF420DA6E000EDE6E4B
:10128000000EDD6E000100018B51020D00016C0E9D
:10129000F324D96E0001000EF420DA6E000EDE6E2B
:1012A000000EDD6E000100018B51010D0001740E76
:1012B000F324D96E0001000EF420DA6E000EDF6E0A
:1012C000000100018B51010D0001760EF324D96E4F
:1012D0000001000EF420DA6E000EDF6E0001000146
:1012E0008B2B010E000100018B6501D001D0BAD714
:1012F00000D00401040E00010001696F0401080E12
:101300000001686F160E706E040E04010401036F75
:10131000200E0401026F080E04010401016F040E87
:1013200004010401006F04010401008F000E4E6EE1
:10133000000E386E000E396E000E3A6E000E3B6ED7
:10134000000E000100017B6F000E00010001786FAC
:101350001200A09A000E6A6E000E686E000E706E8B
:101360000F0E026E710E016E000E046E000E036E03
:10137000000E066E010E056E18EC16F0160E6F6E5E
:101380009F0E6B6E7B0E696E096E000E0A6E095021
:10139000070E0A6401D001D002D01BD01AD00A5027
:1013A000040D0401000EF324D96E0401040EF42090
:1013B000DA6E000EDE6E000EDE6E000EDE6E000EC9
:1013C000DD6EDD52DD520A2A070E0A6401D001D01B
:1013D000E6D76D8C000E6E6E6D986D9C00D0689691
:1013E000000E000100017F6F000E00010001636F1D
:1013F000000E00010001656F000E0001646F68B609
:1014000001D001D0ECD700D0010E00010001796FAE
:10141000010E000100017A6F000E476E000E486E4B
:10142000000E466E096E000E0A6E0950010E0A6427
:1014300001D001D002D03CD03BD00A50020D0001B7
:10144000680EF324D96E0001000EF420DA6E000E4F
:10145000DE6E000EDD6E0A50020D00016C0EF324EC
:10146000D96E0001000EF420DA6E000EDE6E000E62
:10147000DD6E0A50010D0001740EF324D96E0001D7
:10148000000EF420DA6E000EDF6E0A50010D00012E
:10149000760EF324D96E0001000EF420DA6E000EF1
:1014A000DF6E0A2A010E0A6401D001D0C6D700D02F
:1014B0000401040E00010001696F0401080E00011F
:1014C000686F160E706E040E04010401036F200E87
:1014D0000401026F080E04010401016F040E0401EF
:1014E0000401006F04010401008F000E4E6E000E17
:1014F000386E000E396E000E3A6E000E3B6E000E16
:10150000000100017B6F000E00010001786F1200E6
:1015100020EE01F03E50D9263F50DA22DF50036E14
:10152000035000010001645D000E00016559D8B050
:1015300001D001D003D064C003F000D003500001FB
:101540000001645F000E0001655B016E000E026E1B
:10155000015016D00250010D0401280EF324D96E5B
:101560000401040EF420DA6E60C0E1FF61C0E2FF06
:10157000DFCFE7FF00010001604B612B022A00D0A2
:101580000350025CD8A001D001D0E4D700D0000104
:10159000000165516411D8B401D001D037D020EEDC
:1015A00001F04050D9264150DA22080EDF6E20EEBD
:1015B00002F04050D9264150DA22280EDE6E040E89
:1015C000DD6E3EC0D9FF3FC0DAFFDF50016E01BCC7
:1015D00001D001D00DD040C0D9FF41C0DAFF480E84
:1015E000DF6E40C0D9FF41C0DAFF000EDB8E4FD066
:1015F00040C0D9FF41C0DAFF080EDF6E40C0D9FFFE
:1016000041C0DAFF000EDB8E42D041D020EE01F067
:101610004050D9264150DA22080EDF6E20EE02F04B
:101620004050D9264150DA22200EDE6E040EDD6EC7
:1016300040C0D9FF41C0DAFF040EDF6E40C0D9FFC1
:1016400041C0DAFF000EDB8E000100016751661118
:10165000D8B401D001D010D0000120EE66F001D83E
:101660000AD00500FA6EDE50FD6EDE50FE6EF850B8
:10167000FF6EFA50120000D000010001639F49661E
:1016800001D001D004D042EC11F001D000D0120002
:10169000040104012051800AD8A401D001D0B6D0A1
:1016A000C00E000100017F6FA3D0080E00010001F1
:1016B0007D6FB00E00017C6F000E00010001816F94
:1016C000120E0001806FA2D004010401226701D034
:1016D00001D049D0040104012251020D060EF32469
:1016E000F66E080EF420F76E09000001F5CF7CF0CD
:1016F0000A000001F5CF7DF0020E000100017C25FB
:10170000016E000E000100017D21026E0150F66E97
:10171000E96E070EEA6E0250EA6403D0EA6EEF50FB
:1017200003D0F76E0800F55000010001806F030E32
:10173000000100017C25016E000E000100017D21E9
:10174000026E0150F66EE96E070EEA6E0250EA6410
:1017500003D0EA6EEF5003D0F76E0800F550000199
:101760000001816F53D0000E000100017F6F4ED049
:101770004DD0030E04010401226101D001D02CD010
:10178000040104012251020D000EF324F66E080E2E
:10179000F420F76E09000001F5CF7CF00A0000018B
:1017A000F5CF7DF0000100017C51F66EE96E070E69
:1017B000EA6E000100017D51EA6403D0EA6EEF5049
:1017C00003D0F76E0800F550016E015000010001D2
:1017D000806F0001816B1AD0000E000100017F6F45
:1017E00015D014D0000E000100017F6F0FD00ED075
:1017F000040104012351010AD8B457D7030AD8B40D
:1018000063D7010AD8B4B5D7EDD700D012000401D0
:10181000040120511F0B016E0104D8B401D001D086
:1018200002D0ABD0AAD0040104012451D8B401D015
:1018300001D002D0A2D0A1D0040104012151060A96
:10184000D8A401D001D03ED02FD02ED04E04D8A4A1
:1018500001D001D037D0080E000100017D6F7C0E51
:1018600000017C6F000E00010001816F090E000174
:10187000806FC00E000100017F6F24D023D0080EBE
:10188000000100017D6F930E00017C6F000E0001CE
:101890000001816F1D0E0001806FC00E000100016C
:1018A0007F6F10D00FD00ED0040104012351210A04
:1018B000D8B4CCD7030AD8B4E2D7010AD8B402D03E
:1018C00001D000D0040104012039E832030B016E7D
:1018D0000104D8B401D001D03AD04FD04ED037D087
:1018E0004CD04BD0000E000100017D6F520E000164
:1018F0007C6F000E00010001816F010E0001806FFE
:10190000C10E000100017F6F38D0800E0001000180
:101910007F6F23C452F031D0000E000100017D6FB3
:10192000510E00017C6F000E00010001816F010E5D
:101930000001806F810E000100017F6F1ED0800EBC
:10194000000100017F6F22C451F017D016D00401AE
:1019500004012151010AD8B410D0030AD8B4C2D767
:10196000010AD8B4D9D70A0AD8B407D0030AD8B420
:10197000CCD7010AD8B4E3D700D012006D9800018B
:1019800000017FBF01D001D044D00001000163AF4E
:1019900001D001D012D0020E4B6E486601D001D0AA
:1019A00003D097EC12F000D0000E000100017A6F16
:1019B000000E00010001796F7CD020EE01F0405054
:1019C000D9264150DA22080EDF6E20EE02F0405098
:1019D000D9264150DA22200EDE6E040EDD6E40C0A4
:1019E000D9FF41C0DAFF0C0EDF6E40C0D9FF41C005
:1019F000DAFF000EDB8E68C0D9FF69C0DAFF040E83
:101A0000DF6E68C0D9FF69C0DAFF000EDB8E51D0EF
:101A100050D00401040120AF01D001D019D0010E33
:101A20004B6E476601D001D003D097EC12F000D086
:101A3000000E000100017A6F000E00010001796FB5
:101A4000496601D001D035D042EC11F032D031D00E
:101A5000020E4B6E20EE01F04050D9264150DA22A2
:101A6000080EDF6E20EE02F04050D9264150DA22F7
:101A7000200EDE6E040EDD6E40C0D9FF41C0DAFFDD
:101A8000040EDF6E40C0D9FF41C0DAFF000EDB8ECE
:101A9000000E000100017A6F000E00010001796F55
:101AA000496601D001D005D042EC11F002D001D03E
:101AB00000D0120068C0D9FF69C0DAFF0001DF382A
:101AC000E832E832010B036E040E00010001681BCE
:101AD000000100017851080AD8A401D001D015D026
:101AE0000401040122517F0B6E6E6E50D8B401D0F8
:101AF00001D005D0100E00010001786F06D0040E51
:101B000000010001786F01D000D04B04D8A401D0AF
:101B100001D042D0000120EE02F000016851D92628
:101B200000016951DA22280EDE6E040EDD6EAFEC84
:101B30000FF04D50020AD8A401D001D00DD068C0DA
:101B4000D9FF69C0DAFF040EDF6E68C0D9FF69C033
:101B5000DAFF000EDB8E45D0036601D001D00DD038
:101B600068C0D9FF69C0DAFF480EDF6E68C0D9FFD0
:101B700069C0DAFF000EDB8E34D068C0D9FF69C0BF
:101B8000DAFF080EDF6E68C0D9FF69C0DAFF000E09
:101B9000DB8E27D026D025D00001000163AF01D015
:101BA00001D01CD00001000167516611D8B401D0EA
:101BB00001D010D0000120EE66F001D80AD0050057
:101BC000FA6EDE50FD6EDE50FE6EF850FF6EFA507B
:101BD000120000D000010001639F00D0000E4B6E88
:101BE00000D01200000100018351D8B401D001D00F
:101BF00013D0000100018251020D0001680EF32490
:101C0000D96E0001000EF420DA6E0001DECF87F0FD
:101C10000001DDCF88F013D0000100018251020DD8
:101C200000016C0EF324D96E0001000EF420DA6E70
:101C30000001DECF87F00001DDCF88F000D0000189
:101C4000000188518711D8A401D001D009D0000E1D
:101C500000010001836F000E0001826F58D057D041
:101C6000000120EE02F000018751D92600018851C1
:101C7000DA22000184C0DEFF000185C0DDFF000123
:101C800020EE01F000018751D92600018851DA22A7
:101C9000000186C0DFFF87C0D9FF88C0DAFF400E91
:101CA000DF1687C0D9FF88C0DAFF000EDB8687C049
:101CB000D9FF88C0DAFF000EDB8E000100018351DE
:101CC000D8B401D001D00FD0000100018251020D23
:101CD0000001680EF324D96E0001000EF420DA6EC4
:101CE000040EDF1A0FD0000100018251020D000125
:101CF0006C0EF324D96E0001000EF420DA6E040E8F
:101D0000DF1A00D087C082F088C083F000D01200B4
:101D1000040104012039E832030B0009D8B401D0D2
:101D200001D066D08AD089D063D0000100017F8FB6
:101D3000080E00010001786F80D048EC0BF07DD0D8
:101D40003DEC10F07AD0000E000100017D6F4E0EC8
:101D500000017C6F000100017F81010E0001000184
:101D6000806F000100017F8F68D01EEC0FF065D0FE
:101D700000D064EC04F061D0040104012451010D91
:101D80004F0EF324246E000EF420256E24C07CF048
:101D900025C07DF0000100017F81010E00010001DE
:101DA000806F000100017F8F48D0000100017F8F0C
:101DB000040104012451010D4F0EF324D96E000ECD
:101DC000F420DA6E040122C4DFFF37D0000E156E56
:101DD000020E146E000E176E000E166E000E196EB7
:101DE000000E186EF0EC13F028D027D026D025D0A6
:101DF000040104012151000AD8B4B7D7010AD8B4AC
:101E0000B8D7020AD8B4B5D7060AD8B48ED7030A11
:101E1000D8B493D7010AD8B4D9D70F0AD8B493D776
:101E2000010AD8B48DD7030AD8B4A6D7010AD8B40A
:101E3000BCD7070AD8B401D000D01200000E0401AC
:101E40000401286F000E04010401296F62D0000113
:101E500000017F8F04D004010401288100D04504D3
:101E6000D8A401D001D063D00401040128835FD03D
:101E70005ED0000100017F8F5AD0000100017F8FEA
:101E80000401040124BF01D001D014D004010401D5
:101E900024510F0B016E0150020D00016C0EF32452
:101EA000D96E0001000EF420DA6EDECF02F0DDCF35
:101EB00003F014D00401040124510F0B016E0150F2
:101EC000020D0001680EF324D96E0001000EF4200B
:101ED000DA6EDECF02F0DDCF03F000D002C0D9FF12
:101EE00003C0DAFFDF50016E01AE01D001D01FD078
:101EF00002C0D9FF03C0DAFFDF50016E01A401D098
:101F000001D015D0010E04010401286F10D00FD0AC
:101F10000ED00401040120511F0B000AD8B497D73A
:101F2000010AD8B4A6D7030AD8B4A7D700D00001B5
:101F300000017FAF01D001D011D00401040E0001D7
:101F400000017D6F0401280E00017C6F000100017B
:101F50007F81020E00010001806F00D01200016E2F
:101F6000080E026E0150080E00010001805D000E97
:101F700000018159D8B001D001D013D080C002F047
:101F80004D6601D001D003D0010E4D6E0AD04D0434
:101F9000D8A401D001D005D0020E4D6E02D001D0E0
:101FA00000D0025000010001805F000E0001815B43
:101FB000000120EE01F000016851D92600016951AD
:101FC000DA2202C0DFFF0401040E436E0401280E72
:101FD000426E000100017FB101D001D047D020D076
:101FE0001FD000017CC0F6FF00017DC0F7FFF86A3A
:101FF00042C0D9FF43C0DAFF070EF76403D00800E0
:10200000F55005D0F6CFE9FFF7CFEAFFEF50DF6ECE
:10201000000100017C4B7D2B424A432A020600D07E
:10202000026601D001D0DDD727D026D01FD0000115
:102030007CC0F6FF00017DC0F7FFF86A42C0D9FFFF
:1020400043C0DAFF070EF76403D00800F55005D04F
:10205000F6CFE9FFF7CFEAFFEF50DF6E0001000196
:102060007C4B7D2B424A432A020600D0026601D0F7
:1020700001D0DDD701D000D01200000100017F8F18
:102080000F0E026E710E016E000E046E000E036ED6
:10209000000E066E010E056E18EC16F00401040E1B
:1020A000026E0401000E016E000E046E000E036E3F
:1020B000000E066E200E056E18EC16F06D8C1C6E70
:1020C000000E1D6E1C50010E1D6401D001D002D007
:1020D00020D01FD01D50010D0001740EF324D96EC5
:1020E0000001000EF420DA6E000EDF6E1D50010DAF
:1020F0000001760EF324D96E0001000EF420DA6E92
:10210000000EDF6E1D2A010E1D6401D001D0E2D742
:1021100000D0000E026E4F0E016E000E046E000E17
:10212000036E000E066E010E056E18EC16F06D9C27
:102130000401040E00010001696F0401080E000192
:10214000686F0401040E3F6E0401000E3E6E3EC037
:1021500040F03FC041F022C44EF04E6601D001D0A5
:1021600005D0100E00010001786F13D0000E156E1F
:10217000010E146E000E176E4E0E166E000E196EC6
:10218000010E186EF0EC13F0200E00010001786FC4
:1021900000D012000250D8B401D001D00FD00150AD
:1021A000020D0001680EF324D96E0001000EF42028
:1021B000DA6EDECF06F0DDCF07F00FD00150020D52
:1021C00000016C0EF324D96E0001000EF420DA6ECB
:1021D000DECF06F0DDCF07F000D007500610D8A400
:1021E00001D001D006D0000E026E000E016E49D063
:1021F00048D020EE02F00650D9260750DA2203C05C
:10220000DEFF04C0DDFF20EE01F00650D9260750A6
:10221000DA2205C0DFFF06C0D9FF07C0DAFF400E93
:10222000DF1606C0D9FF07C0DAFF000EDB8606C046
:10223000D9FF07C0DAFF000EDB8E0250D8B401D000
:1022400001D00DD00150020D0001680EF324D96EAB
:102250000001000EF420DA6E040EDF1A0DD00150DA
:10226000020D00016C0EF324D96E0001000EF42063
:10227000DA6E040EDF1A00D006C001F007C002F0CB
:1022800000D0120000010001796701D001D06FD0A9
:10229000010E00010001796F000100017A6701D091
:1022A00001D065D0010E000100017A6F4B50020A87
:1022B000D8A401D001D018D0000120EE01F0000117
:1022C0006851D92600016951DA22000EDF6E68C01C
:1022D000D9FF69C0DAFF480EDF6E68C0D9FF69C058
:1022E000DAFF000EDB8E43D04B04D8A401D001D01E
:1022F0003ED0000E446E20EE01F03E50D9263F50F5
:10230000DA22080EDF6E20EE02F03E50D9263F5052
:10231000DA22200EDE6E040EDD6E3EC0D9FF3FC015
:10232000DAFF040EDF6E3EC0D9FF3FC0DAFF000EB9
:10233000DB8E010E446E20EE01F04050D926415054
:10234000DA22080EDF6E20EE02F04050D92641500E
:10235000DA22200EDE6E040EDD6E40C0D9FF41C0D1
:10236000DAFF800EDF6E03D002D001D000D0120061
:10237000010E926E0E0EC16E070EB46E000E896EC7
:10238000030EC26EC09E0001946F010E0001000199
:10239000826F000194515FEC16F00001946F020E01
:1023A00000010001826F000194515FEC16F0000102
:1023B000946F010E00010001826F0001945189ECBD
:1023C00016F00001946F020E00010001826F0001FF
:1023D000945189EC16F00001946F010E0001000188
:1023E000826F0001945174EC16F00001946F000E9E
:1023F00000010001836F00019451A7EC14F000016B
:10240000946F020E00010001826F0001945174EC80
:1024100016F0000E936E000E8A6E9568A3EC08F01D
:102420009CEC15F000D0200E00010001786101D075
:1024300001D002D0F8D7F7D76DA201D001D002D0D9
:10244000F2D7F1D726EC06F0EED7EDD70CEF00F07F
:102450004604D8A401D001D060D0026E010E016EF6
:102460000250C4EC16F062D061D057D03C043D104D
:10247000D8A401D001D007D0026E010E016E025027
:10248000D7EC16F051D03C504B0A3D10D8A401D0E7
:1024900001D007D0026E010E016E0250C4EC16F09E
:1024A00043D0970E3C5C000E3D58D8A001D001D01F
:1024B0003BD0000E3D6E000E3C6E36D035D034D091
:1024C00033D03C043D10D8A401D001D007D0026E17
:1024D000010E016E0250D7EC16F026D03C50320AA5
:1024E0003D10D8A401D001D007D0026E010E016EBC
:1024F0000250C4EC16F018D0B70E3C5C030E3D58E9
:10250000D8A001D001D010D0000E3D6E000E3C6E60
:102510000BD00AD009D008D007D0000100017851B3
:10252000200AD8B4A3D7CDD73C4A3D2A1200000ECA
:10253000476E000E486E4B50020AD8A401D001D05D
:102540001FD020EE01F04050D9264150DA22080E6B
:10255000DF6E20EE02F04050D9264150DA22280EDC
:10256000DE6E040EDD6E40C0D9FF41C0DAFF480EBA
:10257000DF6E40C0D9FF41C0DAFF000EDB8E32D0E3
:10258000000120EE80F0040114EE26F0E652DE5247
:10259000DD50E55C02E1DF50E75CD8B001D001D04E
:1025A00005D026C480F027C481F000D0AFEC0FF036
:1025B000000120EE02F000016851D92600016951A6
:1025C000DA22280EDE6E040EDD6E68C0D9FF69C007
:1025D000DAFF480EDF6E68C0D9FF69C0DAFF000E6F
:1025E000DB8E00D012000401040E0A6E0401000EFE
:1025F000096ED8900234036E046A04360150056EE9
:10260000066AD89005360636D89005360636035049
:102610000524076E04500620086ED8900736083649
:10262000D890073608360750092608500A2209C0F4
:10263000D9FF0AC0DAFF7F0EDF16026601D001D093
:102640000FD00150020D00016C0EF324D96E000171
:10265000000EF420DA6E09C0DEFF0AC0DDFF0FD0E5
:102660000150020D0001680EF324D96E0001000E26
:10267000F420DA6E09C0DEFF0AC0DDFF00D009C019
:10268000D9FF0AC0DAFFBF0EDF1620EE04F00950B2
:10269000D9260A50DA22400EDF1212002D0E4A6EA1
:1026A0005050FD0BD8A401D001D03FD050C026F02F
:1026B000D89026323F0E26162650040D0401000E37
:1026C000F3243E6E0401040EF4203F6E3EC040F041
:1026D0003FC041F0040E401A3EC0D9FF3FC0DAFFB0
:1026E000DF30E8320F0B0D0AD8A401D001D019D089
:1026F0000401040E026E0401200E016E20EE02F0B1
:102700003E50D9263F50DA22DECF03F0DDCF04F071
:10271000000E066E080E056E55EC15F0A1EC13F0D8
:102720000FD074EC14F00CD00BD05050FD0B040AF9
:10273000D8A401D001D004D05AEC0DF001D000D0C3
:102740001200000E4D6E000E496E000E476E000E18
:10275000486E000E446E000E4B6E68C0D9FF69C013
:10276000DAFF7F0EDF16040E00010001681B68C04F
:10277000D9FF69C0DAFF7F0EDF16040E00010001E9
:10278000681B40C0D9FF41C0DAFF7F0EDF16000E84
:10279000000100017F6F000E00010001816F000E3B
:1027A0000001806F000E00010001636F000E000148
:1027B0000001656F000E0001646F88EC0EF0000EE2
:1027C000156E030E146E000E176E000E166E000EC0
:1027D000196E000E186EF0EC13F0BEEC0CF0120047
:1027E00021D04BD028EC12F048D028EC12F01A6E11
:1027F000010E026E1A5079EC15F03FD028EC12F061
:102800001A6E020E026E1A5079EC15F036D005ECF5
:1028100015F033D032D007EC0CF02FD02ED02DD0C5
:102820002CD02BD014C01AF015C01BF01B50000A7E
:10283000D8B404D07F0AD8B41BD01FD01A50010AD4
:10284000D8B4E5D7030AD8B418D0010AD8B4E3D76E
:10285000060AD8B412D0770AD8B40FD0010AD8B477
:10286000C1D7070AD8B4CAD7010AD8B4BED705D091
:102870001A50FF0AD8B401D000D012000600EACFE7
:102880002DF0E1CF2EF0E2CF2FF0D9CF30F0DACF1C
:1028900031F0F3CF32F0F4CF33F0F6CF34F0F7CF9E
:1028A00035F0F8CF36F0F5CF37F096EC07F037C0BB
:1028B000F5FF36C0F8FF35C0F7FF34C0F6FF33C070
:1028C000F4FF32C0F3FF31C0DAFF30C0D9FF2FC0B0
:1028D000E2FF2EC0E1FF2DC0EAFF2CC0E9FF2BC0B4
:1028E000FBFF2AC0FAFF11004B50020AD8A401D006
:1028F00001D003D088EC0AF029D0000E4B6E44665C
:1029000001D001D01FD020EE01F04050D926415017
:10291000DA22080EDF6E20EE02F04050D926415038
:10292000DA22200EDE6E040EDD6E40C0D9FF41C0FB
:10293000DAFF0C0EDF6E40C0D9FF41C0DAFF000E97
:10294000DB8E04D0000E446E01D000D0120022D0E5
:102950000001846F010E00010001826F00018451AB
:102960005FEC16F00001846F020E00010001826F1F
:10297000000184515FEC16F00001846F010E00012C
:102980000001826F000184514AEC16F010D00FD084
:102990000ED00DD0000100018351000AD8B4D8D761
:1029A000010AD8B404D0030AD8B401D000D0120070
:1029B0000CA401D001D009D00BC001F00D6E000EA7
:1029C000026E0D50F3EC12F000D00CA201D001D039
:1029D00009D00BC001F00D6E010E026E0D50F3EC2C
:1029E00012F000D00B50010D700EF3240D6E0F0E7F
:1029F000F4200E6E0DC00FF00EC010F00FC0D9FF06
:102A000010C0DAFF0CC0DFFF1200000E0001000151
:102A1000716F000E0001706F116E010E0B6E115080
:102A2000126E1E0E0C6E1250D8EC14F0116E010EC8
:102A3000016E1150126E000E026E12500501050E4D
:102A4000046E0501000E036E136E400E056E1350EA
:102A5000CAEC10F001C072F002C073F0120070A056
:102A600001D001D020D0800E3EC0D9FF3FC0DAFF98
:102A7000DF6201D001D016D0840E68C0D9FF69C0D2
:102A8000DAFFDF6201D001D00DD03EC0D9FF3FC0D8
:102A9000DAFF0C0EDF6E3EC0D9FF3FC0DAFF000E3A
:102AA000DB8E00D07090689A120003C009F004C059
:102AB0000AF001C007F002C008F00FD009C0D9FF2A
:102AC0000AC0DAFF07C0E1FF08C0E2FFDFCFE7FF7F
:102AD000094A0A2A074A082A00D00506D8A006068D
:102AE0000528D8B40628D8A401D001D0E7D700D053
:102AF000120016D0036E010E016E03509EEC16F00C
:102B0000036E020E016E03509EEC16F0036E010E72
:102B1000016E0350B1EC16F00ED00DD00CD00BD0DE
:102B20000250000AD8B4E6D7010AD8B404D0030A88
:102B3000D8B401D000D0120000010001786701D0A4
:102B400001D01BD0000E6D6E000E696E160E6F6EFA
:102B50009F0E6B6E7B0E696ED08EA28AA08AF28E5B
:102B600001D06D866DA601D001D0FBD700D0010E3B
:102B700000010001786F01D000D0120082C088F0FF
:102B800083C089F00CD088C0D9FF89C0DAFF00016A
:102B900084C0DFFF00010001884B892B00D00001B9
:102BA00000018607D8A0870700018629D8B48729A5
:102BB000D8A401D001D0E7D700D01200000E466E95
:102BC000000E156E740E146E000E176E000E166E4B
:102BD000000E196E000E186EF0EC13F06D926994F1
:102BE00002D0689400D068B401D001D0FAD700D0E8
:102BF000000E000100017B6F1200010E3826000E4E
:102C00003922000E3A22000E3B22466601D001D046
:102C10000ED0000100017B2B000100017B6701D079
:102C200001D005D0000100017B6901D000D0120065
:102C300001C007F002C008F009D007C0D9FF08C0E2
:102C4000DAFF03C0DFFF074A082A00D00506D8A034
:102C500006060528D8B40628D8A401D001D0EDD79F
:102C600000D01200698468986D82010E466E000ED5
:102C7000000100017B6F000E156E750E146E000EC4
:102C8000176E000E166E000E196E000E186EF0EC28
:102C900013F0120006D0938811D0938A0FD00ED073
:102CA0000DD0000100018251000AD8B407D0010AFA
:102CB000D8B4F1D7030AD8B4F0D700D0120006D0A8
:102CC000929211D092940FD00ED00DD0000100013D
:102CD0008251000AD8B407D0010AD8B4F1D7030A48
:102CE000D8B4F0D700D0120006D0898211D08984E0
:102CF0000FD00ED00DD0000100018251000AD8B4CF
:102D000007D0010AD8B4F1D7030AD8B4F0D700D05D
:102D1000120006D0899211D089940FD00ED00DD018
:102D2000000100018251000AD8B407D0010AD8B4CA
:102D3000F1D7030AD8B4F0D700D0120006D092928F
:102D40000FD092940DD00CD00BD00150000AD8B403
:102D500007D0010AD8B4F3D7030AD8B4F2D700D009
:102D6000120006D093880FD0938A0DD00CD00BD0D0
:102D70000150000AD8B407D0010AD8B4F3D7030A27
:102D8000D8B4F2D700D0120006D089920FD089941F
:102D90000DD00CD00BD00150000AD8B407D0010AD6
:102DA000D8B4F3D7030AD8B4F2D700D0120006D0B3
:102DB00089820FD089840DD00CD00BD00150000A2D
:102DC000D8B407D0010AD8B4F3D7030AD8B4F2D7DD
:102DD00000D0120000EE60F0220EEE6AE806FDE17F
:102DE00000EE38F01B0EEE6AE806FDE1000EF86E0C
:062DF0000001B8EF11F034
:020000040030CA
:0E000000210E3F1EFF8181FF0FC00FE00F4059
:00000001FF
