:040000000BEF00F012
:100008005682FACF48F0FBCF49F011ED0FF0C6EF5A
:0200180010F0E6
:1008000000C30809083D086B083403450053004144
:100810000049004900200054006500630068006E34
:10082000006F006C006F00670079002E0000000070
:10083000000000000000000000000000002E034443
:10084000006900730070006F007300690074006934
:1008500000750020004800490044002E0000000000
:100860000000000000000000000000090229000153
:100870000100C03209040000020300000009211138
:10088000010001221D000705810340000107050149
:10089000034000010600FF0901A1011901294015CB
:1008A0000026FF007508954081001901294091003C
:1008B000C01201000200000008D8043F000001013E
:1008C000020001040309040004012205D8A410D089
:1008D000040120511F0B0009D8A40AD00C8E030E6E
:1008E00004012119D8A402D0010E01D0000E1E6E01
:1008F00004012251D8A41200040120511F0B020A46
:10090000D8A41200040124510F0B0009D8B412001E
:10091000040124510F0B406E020E40601200200EA5
:100920002218D8A412000C8E040124BF1BD004018D
:1009300024510F0B406E4050020D640EF324D96E0B
:10094000000EF420DA6EDECF44F0DDCF45F0040176
:1009500024510F0B406E4050010D170EF324D96E39
:10096000000E1AD0040124510F0B406E4050020DAE
:100970000F0EF324D96E000EF420DA6EDECF44F0B1
:10098000DDCF45F0040124510F0B406E4050010DA6
:10099000150EF324D96E000EF420DA6EDF50436E8C
:1009A00043B002D0449401D04484040124BF0BD04E
:1009B000040124510F0B406E4050020D640EF324CD
:1009C000D96E000E0AD0040124510F0B406E405026
:1009D000020D0F0EF324D96E000EF420DA6E44C01F
:1009E000DEFF45C0DDFF030E04012119D8A42ED07F
:1009F00044C0D9FF45C0DAFFDFAE1BD0040124BFDD
:100A00000BD0040124510F0B406E4050010D170E06
:100A1000F324D96E000E0AD0040124510F0B406E4E
:100A20004050010D150EF324D96E000EF420DA6E3D
:100A3000DF8244C0D9FF45C0DAFF000EDB8444C02A
:100A4000D9FF45C0DAFF000EDB8E1200040E441AF7
:100A500044C0D9FF45C0DAFFDFAE1BD044C0D9FF88
:100A600045C0DAFF7F0EDF1644C0D9FF45C0DAFF6C
:100A7000000EDB8C000E396E050E386E44C03AF065
:100A800045C03BF0000E3D6E020E3C6ED2EC0EF007
:100A900006D044C0D9FF45C0DAFF000EDB8C040E3F
:100AA000441A43B206D044C0D9FF45C0DAFFDFAED6
:100AB00030D0040124BF0BD0040124510F0B406E31
:100AC0004050010D170EF324D96E000E0AD0040118
:100AD00024510F0B406E4050010D150EF324D96EBA
:100AE000000EF420DA6EDF9244C0D9FF45C0DAFF71
:100AF0003B0EDF16000E396E050E386E44C03AF01C
:100B000045C03BF0000E3D6E020E3C6ED2EC0EF086
:100B100006D044C0D9FF45C0DAFF3B0EDF16040102
:100B200024510F0B406E4050010D700EF324416EA6
:100B30000F0EF420426E41C0D9FF42C0DAFFFE0E14
:100B4000DF161200000E00017B6F000E00017A6FAD
:100B5000000E796F00016A5100016B11D8B49DD06D
:100B60006AC0D9FF6BC0DAFF0001DFBE120095D06A
:100B700005010151D8A402D08A9001D08A800501D4
:100B80000251D8A402D08A9201D08A820501035171
:100B9000D8A402D08A9401D08A8405010451D8A433
:100BA00002D08A9601D08A8605010551D8A402D0C8
:100BB0008A9801D08A8805010651D8A402D08A9A61
:100BC00001D08A8A05010751D8A402D08A9C01D09D
:100BD0008A8C05010851D8A402D08A9E6CD08A8ED6
:100BE0006AD0000E8A6E67D0000168510001691159
:100BF000D8B407D068C0D9FF69C0DAFF0001DFBEF2
:100C00005AD0810E0501406F83CF41F5010E0001DE
:100C1000726F400E0001736F050E0001746F400E7D
:100C20000001756F010E2FEC0BF032D000016851FE
:100C300000016911D8B407D068C0D9FF69C0DAFFD4
:100C40000001DFBE38D000017C4B7D2B040E00017B
:100C50007D5DD8A005D0000E00017D6F000E7C6F79
:100C6000370E0501406F7CC041F500017D51050143
:100C7000426F010E0001726F400E0001736F050E8E
:100C80000001746F400E0001756F010E2FEC0BF028
:100C900072C068F073C069F00ED005010051370AC8
:100CA000D8B4C4D7B70AD8B463D7010AD8B49CD78C
:100CB000040AD8B496D7000E0001726F000E00012E
:100CC000736F050E0001746F400E0001756F010E09
:100CD0002FEC0BF072C06AF073C06BF01200A09A98
:100CE000000E6A6E000E686E000E706E710E0001CE
:100CF000726F0F0E0001736F000E0001756F000E12
:100D0000746F000E0001776F010E766F21EC10F00A
:100D1000160E6F6E9F0E6B6E7B0E696E000E0001DD
:100D20007A6F070E00017A6501D010D000017A5168
:100D3000040D000EF324D96E040EF420DA6EDE6A80
:100D4000DE6ADE6ADD6A00017A2BEBD76D8C000E5D
:100D50006E6E6D986D9C6896000E0C6E000E046EA3
:100D6000000E066E000E056E68B6F5D7010E236EF6
:100D7000010E246E000E206E000E00016E6F000E3C
:100D80001F6E000E00017A6F010E00017A6501D01E
:100D900033D000017A51020D0F0EF324D96E000EEC
:100DA000F420DA6E000EDE6E000EDD6E00017A5168
:100DB000020D640EF324D96E000EF420DA6E000EDC
:100DC000DE6E000EDD6E00017A51010D150EF3246A
:100DD000D96E000EF420DA6E000EDF6E00017A513B
:100DE000010D170EF324D96E000EF420DA6E000EFA
:100DF000DF6E00017A2BC8D7080E0F6E040E106E3E
:100E0000160E706E040E0401036F200E026F080EA2
:100E10000401016F040E0401006F0401008F000E35
:100E2000296E000E0001606F000E616F000E626F90
:100E3000000E636F000E00016F6F000E226E120035
:100E4000A09A000E6A6E000E686E000E706E710E33
:100E50002C6E0F0E2D6E000E2F6E000E2E6E000EDD
:100E6000316E010E306E9BEC10F0160E6F6E9F0E01
:100E70006B6E7B0E696E000E346E070E346401D00B
:100E80000ED03450040D000EF324D96E040EF4205D
:100E9000DA6EDE6ADE6ADE6ADD6A342AEED76D8CCF
:100EA000000E6E6E6D986D9C6896000E0C6E000EB6
:100EB000046E000E066E000E056E68B6F5D7010EC4
:100EC000236E010E246E000E206E000E00016E6F68
:100ED000000E1F6E000E346E010E346401D02ED051
:100EE0003450020D0F0EF324D96E000EF420DA6E8A
:100EF000000EDE6E000EDD6E3450020D640EF32423
:100F0000D96E000EF420DA6E000EDE6E000EDD6E7D
:100F10003450010D150EF324D96E000EF420DA6E54
:100F2000000EDF6E3450010D170EF324D96E000E43
:100F3000F420DA6E000EDF6E342ACED7080E0F6E64
:100F4000040E106E160E706E040E0401036F200E58
:100F5000026F080E0401016F040E0401006F04010A
:100F6000008F000E296E000E0001606F000E616F91
:100F7000000E626F000E636F000E00016F6F000EB7
:100F8000226E12002204D8B46DBA06D0000E686E2C
:100F900069806988020E226E68B469A403D06894DF
:100FA0003BEC10F06DA202D0A19A120068B069A0CB
:100FB00006D020EC07F0A08A040E226E689068B874
:100FC00069A802D084EC10F068AC1AD069AC0ED0DD
:100FD000000E396E730E386E000E3A6E000E3B6EC8
:100FE000000E3D6E010E3C6ED2EC0EF0689C25ECBE
:100FF00011F02550D8A425062550D8B402EC0CF0E9
:1010000068BA69AA02D0A7EC0FF068B269A20FD043
:101010007F0E396E3868000E3A6E000E3B6E000E81
:101020003D6E010E3C6ED2EC0EF0000E6A6E040EA8
:10103000226002D0A19A120069A638D0000E476E35
:10104000030E476401D032D068A630D06CCF2BF0AD
:101050002B30E832E8320F0B276E68962BB407D09E
:101060002750010D170EF324D96E000E06D027501D
:10107000010D150EF324D96E000EF420DA6EDF7028
:101080002750D8A403D007EC0EF00ED0000E396E16
:10109000720E386E2B0E3A6E000E3B6E000E3D6ED9
:1010A000000E3C6ED2EC0EF0472ACAD7A19A12006D
:1010B000800E04012019D8A41200C00E0C6E7CD042
:1010C000B10E096E080E0A6E000E0E6E120E0D6E37
:1010D000120004012251D8A43ED004012251020D75
:1010E000070EF324F66E080EF420F76E0900F5CF14
:1010F00009F00A00F5CF0AF0020E09242C6E000E4A
:101100000A202D6E2CC0F6FF2DC0F7FFF86A070EDF
:10111000F76403D00800F55005D0F6CFE1FFF7CF14
:10112000E2FFE7500D6E030E09242C6E000E0A201C
:101130002D6E2CC0F6FF2DC0F7FFF86A070EF7647E
:1011400003D00800F55005D0F6CFE1FFF7CFE2FF5E
:10115000E7500E6E1200000E0C6E1200030E04011A
:10116000226124D004012251020D010EF324F66EF7
:10117000080EF420F76E0900F5CF09F00A00F5CF4C
:101180000AF009C0F6FF0AC0F7FFF86A070EF76415
:1011900003D00800F55005D0F6CFE1FFF7CFE2FF0E
:1011A000E7502C6E2C500D6E0E6A1200000E0C6E65
:1011B0001200000E0C6E120004012351010AD8B473
:1011C0007FD7030AD8B485D7010AD8B4C7D7F1D7D7
:1011D00020EE01F01950D9261A50DA22DF502D6E78
:1011E0002D50055C000E0658D8A005C02DF02D50DE
:1011F000055E000E065A000E2C6E11D02C50010D0B
:10120000280EF324D96E040EF420DA6E01C0E1FF3B
:1012100002C0E2FFDFCFE7FF014A022A2C2A2D504D
:101220002C5CD8A0EBD705500610D8B432D020EEF5
:1012300001F01B50D9261C50DA22080EDF6E20EE7A
:1012400002F01B50D9261C50DA22280EDE6E040E46
:10125000DD6E19C0D9FF1AC0DAFFDFBC0DD01BC08C
:10126000D9FF1CC0DAFF480EDF6E1BC0D9FF1CC0BF
:10127000DAFF000EDB8E12001BC0D9FF1CC0DAFFA4
:10128000080EDF6E1BC0D9FF1CC0DAFF000EDB8E1C
:10129000120020EE01F01B50D9261C50DA22080E55
:1012A000DF6E20EE02F01B50D9261C50DA22200EF1
:1012B000DE6E040EDD6E1BC0D9FF1CC0DAFF040E0B
:1012C000DF6E1BC0D9FF1CC0DAFF000EDB8E049E50
:1012D0002150D8A4120002EC0CF012006D980CBE44
:1012E00039D004AE0CD0020E266E00016E51D8B477
:1012F00070EC0DF0000E246E000E236E120020EE36
:1013000001F01B50D9261C50DA22080EDF6E20EEA9
:1013100002F01B50D9261C50DA22200EDE6E040E7D
:10132000DD6E1BC0D9FF1CC0DAFF0C0EDF6E1BC0C8
:10133000D9FF1CC0DAFF000EDB8E0FC0D9FF10C032
:10134000DAFF040EDF6E0FC0D9FF10C0DAFF000E07
:10135000DB8E1200040120AF10D0010E266E20504B
:10136000D8B470EC0DF0000E246E000E236E2150E8
:10137000D8A4120002EC0CF01200020E266E20EE31
:1013800001F01B50D9261C50DA22080EDF6E20EE29
:1013900002F01B50D9261C50DA22200EDE6E040EFD
:1013A000DD6E1BC0D9FF1CC0DAFF040EDF6E1BC050
:1013B000D9FF1CC0DAFF000EDB8E000E246E000E7B
:1013C000236E2150D8A4120002EC0CF012000C8EF7
:1013D000710E2C6E0F0E2D6E000E2F6E000E2E6EE7
:1013E000000E316E010E306E9BEC10F0000E2C6E74
:1013F000040E2D6E000E2F6E000E2E6E000E316E3E
:10140000200E306E9BEC10F06D8C000E406E010EC5
:10141000406401D016D04050010D150EF324D96E52
:10142000000EF420DA6E000EDF6E4050010D170E34
:10143000F324D96E000EF420DA6E000EDF6E402A1F
:10144000E6D72A0E2C6E000E2D6E000E2F6E000EAB
:101450002E6E000E316E010E306E9BEC10F06D9C06
:10146000080E0F6E040E106E000E196E040E1A6E2A
:1014700019C01BF01AC01CF022C429F02950D8A4AE
:1014800003D0100E226E1200000E396E010E386E5F
:10149000290E3A6E000E3B6E000E3D6E010E3C6E44
:1014A000D2EC0EF0200E226E120004012039E83238
:1014B000030B0009D8A4120043D00C8E080E226E34
:1014C000120058EC08F01200E7EC09F01200290EA7
:1014D000096E000E0A6E0C80010E0D6E0C8E12004D
:1014E0001BEC0DF0120064EC04F012000401245116
:1014F000010D2A0EF324096E000EF4200A6E0C80F2
:10150000010E0D6E0C8E12000C8E04012451010D83
:101510002A0EF324D96E000EF420DA6E22C4DFFF07
:101520001200000E396E020E386E000E3A6E000E7A
:101530003B6E000E3D6E000E3C6ED2EC0EF01200C3
:1015400004012151000AD8B4CBD7010AD8B4CBD7B3
:10155000020AD8B4C8D7060AD8B4AFD7030AD8B499
:10156000B0D7010AD8B4DDD70F0AD8B4B0D7010A72
:10157000D8B4AAD7030AD8B4B9D7010AD8B4C4D703
:10158000070A1200040120511F0BE806D8A412001C
:1015900004012451D8A41200060E04012119D8B464
:1015A00018D020D02904D8A41DD07D0E096E080EB5
:1015B0000A6E000E0E6E090E0AD0C00E0C6E12D00E
:1015C000940E096E080E0A6E000E0E6E1D0E0D6E44
:1015D000F4D704012351210AD8B4E4D7030AD8B4BC
:1015E000EFD7010A04012039E832030BE806D8A43A
:1015F000120020D0710E096E000E0A6E000E0E6EE3
:10160000010E0D6EC10E0C6E1200800E0C6E23C406
:1016100071F01200700E096E000E0A6E000E0E6E52
:10162000010E0D6E810E0C6E1200800E0C6E22C427
:1016300070F0120004012151010AD8B41200030A0B
:10164000D8B4D8D7010AD8B4E5D70A0AD8B412005A
:10165000030AD8B4DAD7010AD8A41200E6D70001E9
:10166000766F000172510001D8B408D000017651A4
:10167000020D0F0EF324D96E000E07D00001765133
:10168000020D640EF324D96E000EF420DA6EDECF64
:1016900077F0DDCF78F00001775100017811D8A400
:1016A00007D0000E0001726F000E0001736F120070
:1016B000000120EE02F07751D9267851DA2273C06A
:1016C000DEFF74C0DDFF000120EE01F07751D92666
:1016D0007851DA2275C0DFFF77C0D9FF78C0DAFF12
:1016E000400EDF1677C0D9FF78C0DAFF000EDB8628
:1016F00077C0D9FF78C0DAFF000EDB8E000172518F
:101700000001D8B408D000017651020D0F0EF32469
:10171000D96E000E07D000017651020D640EF3243D
:10172000D96E000EF420DA6E040EDF1A77C072F064
:1017300078C073F01200080E2C6E0E5010E1080EE7
:101740000D5CD8B00CD00DC02CF02850D8A402D01D
:10175000010E04D02804D8A402D0020E286E2C500A
:101760000D5E000E0E5A20EE01F00F50D9261050DB
:10177000DA222CC0DFFF280E00016C6F040E00017E
:101780006D6F0CA01CD03AD009C0F6FF0AC0F7FF5D
:10179000F86A6CC0D9FF6DC0DAFF070EF76403D09A
:1017A0000800F55005D0F6CFE1FFF7CFE2FFE75094
:1017B000DF6E094A0A2A00016C4B6D2B2C062C5057
:1017C000D8B41200E1D709C0F6FF0AC0F7FFF86AE3
:1017D0006CC0D9FF6DC0DAFF070EF76403D00800B4
:1017E000F55005D0F6CFE1FFF7CFE2FFE750DF6E0F
:1017F000094A0A2A00016C4B6D2B2C062C50D8B4D8
:101800001200E1D72350D8A41200010E236E2450F9
:10181000D8A41200010E246E020E2618D8A415D0EA
:1018200020EE01F00F50D9261050DA22000EDF6EA4
:101830000FC0D9FF10C0DAFF480EDF6E0FC0D9FF0E
:1018400010C0DAFF000EDB8E12002604D8A41200AE
:10185000000E1D6E20EE01F01950D9261A50DA2222
:10186000080EDF6E20EE02F01950D9261A50DA2247
:10187000200EDE6E040EDD6E19C0D9FF1AC0DAFF2D
:10188000040EDF6E19C0D9FF1AC0DAFF000EDB8E1E
:10189000010E1D6E20EE01F01B50D9261C50DA22DD
:1018A000080EDF6E20EE02F01B50D9261C50DA2203
:1018B000200EDE6E040EDD6E1BC0D9FF1CC0DAFFE9
:1018C000800EDF6E1200306E2C50D8B407D030502E
:1018D000020D0F0EF324D96E000E06D03050020D0B
:1018E000640EF324D96E000EF420DA6EDECF31F0F0
:1018F000DDCF32F031503210D8A405D0000E2C6E5E
:10190000000E2D6E120020EE02F03150D92632501A
:10191000DA222DC0DEFF2EC0DDFF20EE01F03150B7
:10192000D9263250DA222FC0DFFF31C0D9FF32C0B2
:10193000DAFF400EDF1631C0D9FF32C0DAFF000EE9
:10194000DB8631C0D9FF32C0DAFF000EDB8E2C50AF
:10195000D8B407D03050020D0F0EF324D96E000E0C
:1019600006D03050020D640EF324D96E000EF42020
:10197000DA6E040EDF1A31C02CF032C02DF01200E6
:101980000FC0D9FF10C0DAFF000EDFBC010E2D6EB4
:10199000040E0F1A080E2218D8A40BD004012251ED
:1019A0007F0B6E6E6E50D8B402D0100E01D0040EB4
:1019B000226E2604D8A43AD020EE02F00F50D92689
:1019C0001050DA22280EDE6E040EDD6E9BEC0BF05A
:1019D000020E2818D8A40DD00FC0D9FF10C0DAFF0E
:1019E000040EDF6E0FC0D9FF10C0DAFF000EDB8ED1
:1019F00012002D50D8A40DD00FC0D9FF10C0DAFFAF
:101A0000480EDF6E0FC0D9FF10C0DAFF000EDB8E6C
:101A100012000FC0D9FF10C0DAFF080EDF6E0FC032
:101A2000D9FF10C0DAFF000EDB8E120004BE049E48
:101A3000000E266E1200000E0401286F000E040135
:101A4000296F38D00C8E1E04D8A440D004012883FE
:101A50003DD00C8E3BD00C8E040124BF0BD0040172
:101A600024510F0B2C6E2C50020D640EF324D96EF2
:101A7000000E0AD0040124510F0B2C6E2C50020DC5
:101A80000F0EF324D96E000EF420DA6EDECF2DF0A7
:101A9000DDCF2EF02DC0D9FF2EC0DAFFDFAE16D07D
:101AA0002DC0D9FF2EC0DAFFDFA410D0010E040133
:101AB000286F0CD0040120511F0B000AD8B4C2D7E4
:101AC000010AD8B4C6D7030AD8B4C5D70CAE1200E1
:101AD000280E096E040E0A6E0C80020E0D6E1200A6
:101AE000000E206E000E00016E6F020E2618D8A4A4
:101AF0001FD020EE01F01B50D9261C50DA22080E10
:101B0000DF6E20EE02F01B50D9261C50DA22280E80
:101B1000DE6E040EDD6E1BC0D9FF1CC0DAFF480E5E
:101B2000DF6E1BC0D9FF1CC0DAFF000EDB8E120077
:101B30000D500401265D0E5004012759D8B004D081
:101B400026C40DF027C40EF09BEC0BF020EE02F043
:101B50000F50D9261050DA22280EDE6E040EDD6EEC
:101B60000FC0D9FF10C0DAFF480EDF6E0FC0D9FFDB
:101B700010C0DAFF000EDB8E1200316E000E326EE6
:101B8000040E336E2C502D6E2E6AD8902D362E36C4
:101B900031502F6E306AD8902F363036D8902F368D
:101BA00030362D502F262E503022D8902F363036FA
:101BB000D8902F3630362F5032263050332232C054
:101BC000D9FF33C0DAFFDF9E2C50D8A407D03150A4
:101BD000020D640EF324D96E000E06D03150020DB2
:101BE0000F0EF324D96E000EF420DA6E32C0DEFF41
:101BF00033C0DDFF32C0D9FF33C0DAFFDF9C20EEF7
:101C000004F03250D9263350DA22DF8C12002D0E28
:101C1000256E2BC046F0FD0E4616D8A438D02BC03A
:101C200046F0D89046323F0E46164650040D000E40
:101C3000F324196E040EF4201A6E19C01BF01AC09A
:101C40001CF0040E1B1A19C0D9FF1AC0DAFFDF30CE
:101C5000E8320F0B0D0AD8A417D0200E2C6E040EFC
:101C60002D6E20EE02F01950D9261A50DA22DECF5E
:101C70002EF0DDCF2FF0000E316E080E306EC8EC66
:101C80000FF04FEC0EF0120079EC0FF012002B5019
:101C9000FD0B040AD8A41200C0EC0CF01200000ED8
:101CA000286E000E216E000E206E000E00016E6F79
:101CB000000E1D6E000E266E0FC0D9FF10C0DAFF99
:101CC0007F0EDF16040E0F1A0FC0D9FF10C0DAFF07
:101CD0007F0EDF16040E0F1A1BC0D9FF1CC0DAFFDF
:101CE0007F0EDF16000E0C6E000E0E6E000E0D6ED7
:101CF000000E046E000E066E000E056E55EC0AF026
:101D0000000E396E030E386E000E3A6E000E3B6EFA
:101D1000000E3D6E000E3C6ED2EC0EF06EEC09F043
:101D200012001F04D8A436D0010E6BEC11F0120083
:101D300013041410D8A404D0010E5AEC11F02FD0C3
:101D40004B0E13181410D8A404D0010E6BEC11F034
:101D500026D0145004E1970E135CD8A020D0000EBA
:101D6000146E000E136E1BD013041410D8A404D0EC
:101D7000010E5AEC11F013D0320E13181410D8A41F
:101D800004D0010E6BEC11F00AD0B70E135C030EF9
:101D90001458E3D72250200AD8B4CAD7E5D7134A3B
:101DA000142A120015D091EC0EF0120091EC0EF0F6
:101DB000010EB1EC10F0120091EC0EF0020EB1EC3D
:101DC00010F0120006EC10F01200C2EC0AF0120043
:101DD00038C03EF039C03FF03F50000AD8B404D0BC
:101DE0007F0AD8A412001AD03E50010AD8B4EAD70C
:101DF000030AD8B41200010AD8B4E7D7060AD8B447
:101E00001200770AD8B41200010AD8B4CCD7070A56
:101E1000D8B4D2D7010AD8A41200C8D73E50FF0ABE
:101E200012000600E9CF4AF0EACF4BF0E1CF4CF0C8
:101E3000E2CF4DF0D9CF4EF0DACF4FF0F3CF50F0E4
:101E4000F4CF51F0F6CF52F0F7CF53F0F8CF54F073
:101E5000F5CF55F0C2EC07F055C0F5FF54C0F8FFC0
:101E600053C0F7FF52C0F6FF51C0F4FF50C0F3FF5C
:101E70004FC0DAFF4EC0D9FF4DC0E2FF4CC0E1FFBA
:101E80004BC0EAFF4AC0E9FF49C0FBFF48C0FAFF68
:101E900056921100010E926E0E0EC16E070EB46EB8
:101EA000000E896E010ED9EC10F0020ED9EC10F084
:101EB000010E12EC11F0020E12EC11F0010EFFEC0B
:101EC00010F0000E6DEC10F0020EFFEC10F0000EA2
:101ED000936E000E8A6E95686FEC06F055EC10F06C
:101EE000200E226001D0FCD76DB2FAD7A2EC05F02B
:101EF000F7D7020E2618D8A403D0E8EC08F0120099
:101F0000000E266E1D50D8A41FD020EE01F01B50ED
:101F1000D9261C50DA22080EDF6E20EE02F01B508C
:101F2000D9261C50DA22200EDE6E040EDD6E1BC098
:101F3000D9FF1CC0DAFF0C0EDF6E1BC0D9FF1CC01E
:101F4000DAFF000EDB8E1200000E1D6E120070A074
:101F50001DD019C0D9FF1AC0DAFF800EDE18D8A430
:101F600014D00FC0D9FF10C0DAFF840EDE18D8A439
:101F70000CD019C0D9FF1AC0DAFF0C0EDF6E19C0E1
:101F8000D9FF1AC0DAFF000EDB8E7090689A12003B
:101F90002EC034F02FC035F02CC032F02DC033F0FD
:101FA0000ED034C0D9FF35C0DAFF32C0E1FF33C0F4
:101FB000E2FFDFCFE7FF344A352A324A332A3006C0
:101FC000D8A031063028EDE13128D8B41200E9D785
:101FD000376E34A405D0000E2C6E3750BDEC0DF0DA
:101FE00034A205D0010E2C6E3750BDEC0DF03750E9
:101FF000010D700EF324356E0F0EF420366E35C0D1
:10200000D9FF36C0DAFF34C0DFFF1200000E000136
:10201000686F000E0001696F1E0E346E010EE8EC51
:102020000FF0000E2C6E000E2D6E050E2E6E400E63
:102030002F6E010E63EC0CF02CC06AF02DC06BF01B
:10204000120072C078F073C079F009D078C0D9FF5F
:1020500079C0DAFF74C0DFFF0001784B792B0001F3
:102060007607D8A0770700017629F0E100017729EB
:10207000D8B41200EBD7000E1F6E000E396E740E2E
:10208000386E000E3A6E000E3B6E000E3D6E000E76
:102090003C6ED2EC0EF06D92699401D0689468B4F5
:1020A000FDD7000E00016F6F12002250D8A412005D
:1020B000000E6D6E000E696E160E6F6E9F0E6B6ECB
:1020C0007B0E696ED08EA28AA08AF28E01D06D86B8
:1020D0006DA6FDD7010E226E12000001736F0AD0AB
:1020E000010ED9EC10F0020ED9EC10F0010EECEC60
:1020F00010F0120000017351000AD8B4F1D7010AA0
:10210000D8B41200030A1200698468986D82010E27
:102110001F6E000E00016F6F000E396E750E386E67
:10212000000E3A6E000E3B6E000E3D6E000E3C6ED1
:10213000D2EC0EF012002CC032F02DC033F008D0DB
:1021400032C0D9FF33C0DAFF2EC0DFFF324A332A54
:102150003006D8A031063028F3E13128D8B4120077
:10216000EFD72D6E0AD0010E38EC11F0020E38ECCC
:1021700011F0010E49EC11F012002D50000AD8B4F4
:10218000F2D7010AD8B41200030A120000EE60F080
:10219000120EEE6AE806FDE100EE01F02B0EEE6A8B
:1021A000E806FDE156905692000EF86E00014AEFE7
:1021B0000FF00001726F04D09292120092941200FC
:1021C00000017251000AD8B41200010AD8B4F4D741
:1021D000030AD8A41200F2D70001726F04D09388CA
:1021E0001200938A120000017251000AD8B4120042
:1021F000010AD8B4F4D7030AD8A41200F2D7000118
:10220000726F04D089821200898412000001725119
:10221000000AD8B41200010AD8B4F4D7030AD8A42B
:102220001200F2D70001726F04D0899212008994D3
:10223000120000017251000AD8B41200010AD8B489
:10224000F4D7030AD8A41200F2D7010E00016027C8
:10225000000E6123622363231F50D8A412000001E3
:102260006F2B00016F51D8A4120000016F6912009A
:102270002C6E04D092921200929412002C50000AFC
:10228000D8B41200010AD8B4F5D7030AD8A41200B2
:10229000F3D72C6E04D093881200938A12002C502E
:1022A000000AD8B41200010AD8B4F5D7030AD8A49A
:1022B0001200F3D72C6E04D0898212008984120098
:1022C0002C50000AD8B41200010AD8B4F5D7030A7A
:1022D000D8A41200F3D72C6E04D0899212008994EE
:1022E00012002C50000AD8B41200010AD8B4F5D755
:0822F000030AD8A41200F3D781
:020000040030CA
:0E000000210E3F1EFF8181FF0FC00FE00F4059
:00000001FF
