:040000000CEF00F011
:10000800FACF01F0FBCF02F0E9CF03F0E0ED01F009
:1000180014EF04F054EC04F0F8EC03F0336E000E27
:100028001C6E3350346E070E1D6E3450356E000E44
:100038001E6E3550366E7F0E1F6E36509EEC02F0E7
:10004800000E00010001E06F800E00010001E16F69
:10005800BF0E00010001E26FCD0E00010001E36F49
:10006800CC0E00010001E46F3D0E00010001E56FB8
:10007800336E030E216E3350346E320E226E3450BE
:100088007F0E246EFC0E236E99EC01F0000E166EA6
:10009800010E156E6AEC03F0336E030E216E3350B9
:1000A800346E320E226E34507F0E246EFA0E236E9A
:1000B80099EC01F0000E166E010E156E6AEC03F055
:1000C800336E030E216E3350346E320E226E34506E
:1000D8007F0E246EF80E236E99EC01F0000E166E5A
:1000E800010E156E6AEC03F0CA84336E000E1C6EA6
:1000F8003350346E070E1D6E3450356E000E1E6E72
:100108003550366E7F0E1F6E36509EEC02F000D0D2
:10011800E90E00010001EA5D030E0001EB59D8A0C9
:1001280001D001D00CD0000E00010001EB6F000ED1
:100138000001EA6F00010001E84BE92B00D03D0EF9
:1001480000010001E85D000E0001E959D8A001D0C6
:1001580001D00CD000010001E64BE72B000E000196
:100168000001E96F000E0001E86F00D00001000EE9
:100178001E6E0001600E1D6E7F0E206ED70E1F6E64
:10018800E6C021F0E7C022F0E8C023F0E9C024F07F
:10019800EAC025F0EBC026F0E6EC00F0336E030E63
:1001A800216E3350346E1E0E226E34500001000E44
:1001B800246E0001600E236E99EC01F0A9D7A8D730
:1001C8000CEF00F0000E2B6E210E2A6E97D03250E5
:1001D800250AD8B401D001D009D01DC0D9FF1EC04E
:1001E800DAFF32C0DFFF1D4A1E2A88D0276E000EB4
:1001F800296E275006D091D081D0C00E291212D076
:1002080011D01FC0F6FF20C0F7FF1F4A202A0800A0
:10021800F5CF32F03250000AD8B47FD0750AD8B47E
:10022800ECD76CD02AC0D9FF2BC0DAFFDECF2CF078
:10023800DDCF2DF0020E2A26000E2B22276E010E8E
:10024800326E27503250050AD8A401D001D002D00E
:1002580020D01FD03250020DA00EF324F66E7F0E70
:10026800F420F76E0900F5CF27F00900F5CF28F044
:1002780027502C5C28502D58D8B001D001D002D07E
:1002880008D007D0322A3250050AD8A401D001D0AC
:10029800E1D732C031F02AD03150020DA00EF3243C
:1002A800F66E7F0EF420F76E0900F5CF11F00A0004
:1002B800F5CF12F02CC00FF02DC010F0D7EC02F0E3
:1002C8000FC017F010C018F0000E1A6E0A0E196E43
:1002D8003CEC03F01750300F326E1DC0D9FF1EC022
:1002E800DAFF32C0DFFF1D4A1E2A00D0310631284E
:1002F800D8A401D001D0D0D701D000D01FC0F6FFBC
:1003080020C0F7FF1F4A202A0800F5CF32F03266D6
:1003180001D001D05CD701D000D01DC0D9FF1EC0CC
:10032800DAFF000EDF6E00D01200000E286E000EFD
:10033800276E25D021C01CF02744E846FC0B222458
:100348001D6E23C025F024C026F0275025262850EE
:1003580026222550F66EE96E070EEA6E2650EA64EC
:1003680003D0EA6EEF5003D0F76E0800F5501E6E0A
:1003780025EC02F0274A282A020E222600D023C0A4
:1003880025F024C026F0275025262850262225505F
:10039800F66EE96E070EEA6E2650EA6403D0EA6E3E
:1003A800EF5003D0F76E0800F5500009D8A401D02B
:1003B80001D0C0D700D012000600EACF04F0E1CF88
:1003C80005F0E2CF06F0D9CF07F0DACF08F0F3CF87
:1003D80009F0F4CF0AF0F6CF0BF0F7CF0CF0F8CF16
:1003E8000DF0F5CF0EF09DA201D001D00DD09EA248
:1003F80001D001D009D000010001EA4BEB2B060E19
:10040800CC6E9E9201D000D00EC0F5FF0DC0F8FF53
:100418000CC0F7FF0BC0F6FF0AC0F4FF09C0F3FFDA
:1004280008C0DAFF07C0D9FF06C0E2FF05C0E1FF38
:1004380004C0EAFF03C0E9FF02C0FBFF01C0FAFFE6
:100448001100000E206E000E1F6E2050800A800FD3
:10045800050ED8B41F5CD8A001D001D002D02ED090
:100468002DD01CC016F01D501F24176EE00E1E2440
:100478000F6E106AFF0E1022000E126E050E116E1E
:10048800DAEC03F01F500F2620501022AC0E0F2478
:10049800F66E7D0E1020F76E0800F5CF18F063ECAD
:1004A80002F01F4A202A2050800A800F050ED8B477
:1004B8001F5CD8A001D001D0D4D700D01200400EC4
:1004C800176001D001D005D0000E1A6E010E196E0A
:1004D80005D0000E1A6E020E196E00D019C01BF05E
:1004E80016C013F041EC04F017C013F00DEC03F044
:1004F8001BC00FF092EC03F0000E936E1B04D8A4FF
:1005080001D001D002D0819000D01B50020AD8A49B
:1005180001D001D001D081928196818400F0818838
:1005280000F018C083FF000E956E00F0819881805E
:10053800818212001CC023F0246A24D01EC025F03A
:10054800266A0DD023C016F025C017F0206E000EC5
:10055800186E205063EC02F0254A262A00D01F505E
:10056800206E216A2150800A226E2550205C265078
:10057800800A2258D8B001D001D0E4D700D0234A4D
:10058800242A00D01D50206E216A2150800A226E34
:100598002350205C2450800A2258D8B001D001D0C2
:1005A800CDD700D01200000E156E000E146E12503A
:1005B8001110D8B401D001D027D0136E010E166ED9
:1005C800135005D0D89011361236162A00D012AE24
:1005D80001D001D0F7D701D000D0D8901436153605
:1005E80011500F5C12501058D8A001D001D006D07D
:1005F80011500F5E1250105A148000D0D890123249
:100608001132162EEAD700D014C00FF015C010F022
:100618001200400E136001D001D014D013504009CD
:10062800116E146E010E126E1450B8EC03F0146EB5
:10063800400E116E1450156E020E126E1550B8EC65
:1006480003F015D0146E7F0E116E1450156E010E46
:10065800126E1550B8EC03F01350C00F4009116E1C
:10066800146E020E126E1450B8EC03F000D0120093
:100678001A501910D8B401D001D023D01B6E010E26
:100688001C6E1B5005D0D89019361A361C2A00D07B
:100698001AAE01D001D0F7D701D000D01950175C9D
:1006A8001A501858D8A001D001D005D01950175E9B
:1006B8001A50185A00D0D8901A3219321C2EEED778
:1006C80000D017C017F018C018F01200000E196EED
:1006D800000E186E0BD01A0E176EF80EE82EFED705
:1006E800172EFCD700F0184A192A00D015C00FF0B1
:1006F80016C010F0000E126E640E116EDAEC03F0E4
:100708001950800A176E0F50185C1050800A17583D
:10071800D8A001D001D0DFD700D012009568000E14
:10072800936E0F04D8A401D001D002D0819000D0DC
:100738000F50020AD8A401D001D001D0819281863D
:10074800819400F0818800F083CF10F0819805D063
:10075800818800F083CF10F0819810BE01D001D0BD
:10076800F7D781808182120012C00FF092EC03F05B
:10077800000E936E1204D8A401D001D002D081904B
:1007880000D01250020AD8A401D001D001D0819221
:100798008196819400F0818800F011C083FF000EDB
:1007A800956E00F081988180818212000F501102AD
:1007B800F3CF13F0F4CF14F00F501202F3CFF4FF7D
:1007C800F36AF3501326F450142210501102F3CF99
:1007D800F4FFF36AF3501326F450142213C00FF0F9
:1007E80014C010F000D01200818A156E3F0E116EF1
:1007F8001550166E010E126E1650B8EC03F0156EF9
:100808003F0E116E1550166E020E126E1650B8EC91
:1008180003F0156E000E136E15502EEC04F0120046
:100828000001EB6BEA6BE96BE86BE76BE66B386A28
:10083800376ACA0EF66E080EF76E000EF86E0900DB
:10084800F5CF39F00900F5CF3AF0000EF86E000147
:100858000EEF00F01350C009116E146E010E126EE7
:100868001450B8EC03F01350C009116E146E020E48
:10087800126E1450B8EC03F012001350B809116E40
:10088800146E010E126E1450B8EC03F01350B80930
:10089800116E146E020E126E1450B8EC03F01200B2
:1008A800000E936E0F0EC16E9468050EBD6ED08E4D
:1008B800F28EF28C9F829D827D0ECB6E020ECA6EE6
:0408C8001200FFFF1C
:1079AC0000AA104A802A104A802A900AA00A508AFB
:1079BC00208A104A208A104A200A500AA00A500A2B
:1079CC00A00A500AA00A500AA00AA442A8A228623F
:1079DC0054B01AA81A4C0AA446142696224A1246E7
:1079EC008A12460A5203520AA206942CF2802A8466
:1079FC0012A00A500AA00A500AA00A500A204A9063
:107A0C000AA00A500AA00A500AA00A500AA00A505A
:107A1C000A204A900AA00A500AA00A500AA00A504A
:107A2C0000AA1144881122944208528410A50822FD
:107A3C004822842942085104A902A900AA00550829
:107A4C00A204A902A8022940AA045005500B5DEB20
:107A5C0054A214A21441942288218A208A209500D1
:107A6C002A40950055005500AA0054015EF5002AE5
:107A7C00408A10A50822442982284114A10A5002E8
:107A8C0054822845104A0055208A249102548114AE
:107A9C00A10AA00A500AA005A80254812A409520E8
:107AAC0000AA1144881122944015204A8410A5087C
:107ABC00A500AA40154885104A208A1144902582B9
:107ACC00284114A208510254005508A10A5005AAD5
:107ADC000BFA55885522488228D2A852180A081940
:107AEC000A080A0899F259941A018C0904094DDD07
:107AFC00EA002A40154015A00A5005A80254812A14
:107B0C00802A401548055005A802548015A00A503B
:107B1C008A208A11A401548228410A5082540055AB
:107B2C0000AA114488112294401522488214A208FC
:107B3C00A2045288218A10A209A410458822481256
:107B4C00441144922095005508A5104214214A94E2
:107B5C006D55D35A441146104A80152244085204DC
:107B6C005404A4144A055109A1154919468A162929
:107B7C00F6410A510451845208214A104510A204BE
:107B8C00A801AA104508A5104A0154805500AA0066
:107B9C00AA104A802A4114A0154015A00A50852825
:107BAC0000AA114488112294401522488214A2087C
:107BBC00A204A9402A0055802A402A802A44114454
:107BCC00918AA08A5082D4616AB0A558519AB0BAF1
:107BDC00B05FB56554C15AC194A0554055A47554B5
:107BEC00555C5634E5AC29AC24AD28B5342C15B213
:107BFC001531942996945256B9565D54C1BA005217
:107C0C000451045085284214418A50025401548274
:107C1C0028419408A10A50825401AA00AA00AA1073
:107C2C0000AA114488112294401522488214A208FB
:107C3C0072EC2A5475946546D48512A24A9325A1F8
:107C4C00CAA1C8A5D1A054D16AC8EDBBB54AD42AE3
:107C5C00AA5294A55594A5AA54AA25A95592552A79
:107C6C0055F5A93D2A57951852941A582A950C5433
:107C7C00852C8A24462A852B825302AB025481140C
:107C8C00A104A902A80254812A400A5005A8055053
:107C9C008214A015402A802A9005284208510452CB
:107CAC0000AA114488112294401522488214A2087B
:107CBC00A51145075505560256228B12454911252B
:107CCC0088428830EABCD7555BD655AA5AABAA5520
:107CDC00AA95525495AAA42A554AA92AA594A52A2C
:107CEC0049D2A5AB76D4980550821421442885102E
:107CFC00229440152095400A50825402284510A227
:107D0C000429402A8015A00A5005A801AA00552074
:107D1C008A10A204A902A802A8114A0154812A417E
:107D2C0000AA11440851825400558228421442285A
:107D3C008214A10AA104A902A900AA005520950049
:107D4C00AA00EAE8BEAB77AD6BDEAB566F5A56AD08
:107D5C00AA5CD52DEC2AAC6D4DB65655D656AB5506
:107D6C00ABD5AA55B5AA55D7AEB86154012A401562
:107D7C00402A8015A00AA4114408520154812A40BB
:107D8C0015A005A8025482288510A2144208A5103B
:107D9C004A00AA0154208A244208A5104508A208CA
:107DAC00000000000000005F000000070007001446
:107DBC007F147F14242A7F2A122313086462364905
:107DCC005522500005030000001C224100004122F6
:107DDC001C00082A1C2A0808083E0808005030001D
:107DEC0000080808080800303000002010080402C1
:107DFC003E5149453E00427F400042615149462177
:107E0C0041454B311814127F1027454545393C4AE2
:107E1C004949300171090503364949493606494932
:107E2C00291E0036360000005636000000081422C9
:107E3C0041141414141441221408000201510906AF
:107E4C00324979413E7E1111117E7F494949363EB6
:107E5C00414141227F4141221C7F494949417F09CF
:107E6C000901013E414151327F0808087F00417FE2
:107E7C0041002040413F017F081422417F40404097
:107E8C00407F0204027F7F0408107F3E4141413E47
:107E9C007F090909063E4151215E7F091929464691
:107EAC004949493101017F01013F4040403F1F20BA
:107EBC0040201F7F2018207F63140814630304786C
:107ECC000403615149454300007F414102040810FD
:107EDC002041417F00000402010204404040404028
:107EEC00000102040020545454787F48444438382C
:107EFC0044444420384444487F3854545418087E31
:107F0C00090102081454543C7F0804047800447D91
:107F1C0040002040443D00007F10284400417F4039
:107F2C00007C041804787C080404783844444438F1
:107F3C007C14141408081414187C7C0804040848D5
:107F4C0054545420043F4440203C4040207C1C208E
:107F5C0040201C3C4030403C44281028440C5050DD
:107F6C00503C4464544C44000836410000007F00EF
:107F7C0000004136080008082A1C08081C2A0808BA
:107F8C000800AA0008003838380000000000000083
:107F9C000000000001000A006400E8031027426F93
:107FAC00726A61204665726E616E64657A004D611D
:107FBC007469617320537A617266657200416C65F5
:107FCC0069782053616E63686973002575203A20C7
:107FDC002575203A2025750032382F31302F32305C
:107FEC003136004772757020313346003100320053
:047FFC00330000004E
:020000040030CA
:0E000000210C3F1EFF8181FF0FC00FE00F405B
:00000001FF
